{
  "abi": [
    {
      "inputs": [
        {
          "internalType": "string",
          "name": "name",
          "type": "string"
        },
        {
          "internalType": "string",
          "name": "symbol",
          "type": "string"
        },
        {
          "internalType": "address",
          "name": "fed",
          "type": "address"
        },
        {
          "internalType": "address",
          "name": "treasury",
          "type": "address"
        }
      ],
      "stateMutability": "nonpayable",
      "type": "constructor"
    },
    {
      "anonymous": false,
      "inputs": [
        {
          "indexed": true,
          "internalType": "address",
          "name": "owner",
          "type": "address"
        },
        {
          "indexed": true,
          "internalType": "address",
          "name": "spender",
          "type": "address"
        },
        {
          "indexed": false,
          "internalType": "uint256",
          "name": "value",
          "type": "uint256"
        }
      ],
      "name": "Approval",
      "type": "event"
    },
    {
      "anonymous": false,
      "inputs": [
        {
          "indexed": false,
          "internalType": "uint256",
          "name": "amount",
          "type": "uint256"
        }
      ],
      "name": "Disbursal",
      "type": "event"
    },
    {
      "anonymous": false,
      "inputs": [
        {
          "indexed": true,
          "internalType": "address",
          "name": "owner",
          "type": "address"
        },
        {
          "indexed": false,
          "internalType": "uint256",
          "name": "amount",
          "type": "uint256"
        }
      ],
      "name": "DividendClaim",
      "type": "event"
    },
    {
      "anonymous": false,
      "inputs": [
        {
          "indexed": true,
          "internalType": "address",
          "name": "from",
          "type": "address"
        },
        {
          "indexed": true,
          "internalType": "address",
          "name": "to",
          "type": "address"
        },
        {
          "indexed": true,
          "internalType": "uint256",
          "name": "value",
          "type": "uint256"
        },
        {
          "indexed": false,
          "internalType": "string",
          "name": "memo",
          "type": "string"
        }
      ],
      "name": "Memo",
      "type": "event"
    },
    {
      "anonymous": false,
      "inputs": [
        {
          "indexed": true,
          "internalType": "address",
          "name": "fedad",
          "type": "address"
        }
      ],
      "name": "NewFed",
      "type": "event"
    },
    {
      "anonymous": false,
      "inputs": [
        {
          "indexed": true,
          "internalType": "address",
          "name": "treasuryad",
          "type": "address"
        }
      ],
      "name": "NewTreasury",
      "type": "event"
    },
    {
      "anonymous": false,
      "inputs": [
        {
          "indexed": true,
          "internalType": "uint256",
          "name": "prop",
          "type": "uint256"
        }
      ],
      "name": "Newproposal",
      "type": "event"
    },
    {
      "anonymous": false,
      "inputs": [
        {
          "indexed": true,
          "internalType": "uint256",
          "name": "prop",
          "type": "uint256"
        }
      ],
      "name": "Proposalexecuted",
      "type": "event"
    },
    {
      "anonymous": false,
      "inputs": [
        {
          "indexed": true,
          "internalType": "address",
          "name": "from",
          "type": "address"
        },
        {
          "indexed": true,
          "internalType": "address",
          "name": "to",
          "type": "address"
        },
        {
          "indexed": false,
          "internalType": "uint256",
          "name": "value",
          "type": "uint256"
        }
      ],
      "name": "Transfer",
      "type": "event"
    },
    {
      "inputs": [
        {
          "internalType": "uint256",
          "name": "amount",
          "type": "uint256"
        }
      ],
      "name": "_disburse",
      "outputs": [],
      "stateMutability": "nonpayable",
      "type": "function"
    },
    {
      "inputs": [
        {
          "internalType": "address",
          "name": "owner",
          "type": "address"
        },
        {
          "internalType": "address",
          "name": "spender",
          "type": "address"
        }
      ],
      "name": "allowance",
      "outputs": [
        {
          "internalType": "uint256",
          "name": "",
          "type": "uint256"
        }
      ],
      "stateMutability": "view",
      "type": "function"
    },
    {
      "inputs": [
        {
          "internalType": "address",
          "name": "spender",
          "type": "address"
        },
        {
          "internalType": "uint256",
          "name": "amount",
          "type": "uint256"
        }
      ],
      "name": "approve",
      "outputs": [
        {
          "internalType": "bool",
          "name": "",
          "type": "bool"
        }
      ],
      "stateMutability": "nonpayable",
      "type": "function"
    },
    {
      "inputs": [
        {
          "internalType": "address",
          "name": "account",
          "type": "address"
        }
      ],
      "name": "balanceOf",
      "outputs": [
        {
          "internalType": "uint256",
          "name": "",
          "type": "uint256"
        }
      ],
      "stateMutability": "view",
      "type": "function"
    },
    {
      "inputs": [],
      "name": "burnedSupply",
      "outputs": [
        {
          "internalType": "uint256",
          "name": "",
          "type": "uint256"
        }
      ],
      "stateMutability": "view",
      "type": "function"
    },
    {
      "inputs": [
        {
          "internalType": "address",
          "name": "target",
          "type": "address"
        },
        {
          "internalType": "uint256",
          "name": "amountt",
          "type": "uint256"
        }
      ],
      "name": "burnfed",
      "outputs": [
        {
          "internalType": "bool",
          "name": "success",
          "type": "bool"
        }
      ],
      "stateMutability": "nonpayable",
      "type": "function"
    },
    {
      "inputs": [
        {
          "internalType": "uint256",
          "name": "amountt",
          "type": "uint256"
        }
      ],
      "name": "burnt",
      "outputs": [
        {
          "internalType": "bool",
          "name": "success",
          "type": "bool"
        }
      ],
      "stateMutability": "nonpayable",
      "type": "function"
    },
    {
      "inputs": [
        {
          "internalType": "uint256",
          "name": "",
          "type": "uint256"
        }
      ],
      "name": "canceled",
      "outputs": [
        {
          "internalType": "bool",
          "name": "",
          "type": "bool"
        }
      ],
      "stateMutability": "view",
      "type": "function"
    },
    {
      "inputs": [],
      "name": "decimals",
      "outputs": [
        {
          "internalType": "uint8",
          "name": "",
          "type": "uint8"
        }
      ],
      "stateMutability": "view",
      "type": "function"
    },
    {
      "inputs": [
        {
          "internalType": "address",
          "name": "spender",
          "type": "address"
        },
        {
          "internalType": "uint256",
          "name": "subtractedValue",
          "type": "uint256"
        }
      ],
      "name": "decreaseAllowance",
      "outputs": [
        {
          "internalType": "bool",
          "name": "",
          "type": "bool"
        }
      ],
      "stateMutability": "nonpayable",
      "type": "function"
    },
    {
      "inputs": [
        {
          "internalType": "address",
          "name": "account",
          "type": "address"
        }
      ],
      "name": "dividendsOwed",
      "outputs": [
        {
          "internalType": "uint256",
          "name": "",
          "type": "uint256"
        }
      ],
      "stateMutability": "view",
      "type": "function"
    },
    {
      "inputs": [
        {
          "internalType": "uint256",
          "name": "",
          "type": "uint256"
        }
      ],
      "name": "executed",
      "outputs": [
        {
          "internalType": "bool",
          "name": "",
          "type": "bool"
        }
      ],
      "stateMutability": "view",
      "type": "function"
    },
    {
      "inputs": [
        {
          "internalType": "uint256",
          "name": "proposal",
          "type": "uint256"
        }
      ],
      "name": "executeproposal",
      "outputs": [],
      "stateMutability": "nonpayable",
      "type": "function"
    },
    {
      "inputs": [],
      "name": "fedDAO",
      "outputs": [
        {
          "internalType": "address",
          "name": "",
          "type": "address"
        }
      ],
      "stateMutability": "view",
      "type": "function"
    },
    {
      "inputs": [],
      "name": "fee",
      "outputs": [
        {
          "internalType": "uint16",
          "name": "",
          "type": "uint16"
        }
      ],
      "stateMutability": "view",
      "type": "function"
    },
    {
      "inputs": [
        {
          "internalType": "address",
          "name": "",
          "type": "address"
        }
      ],
      "name": "fvote",
      "outputs": [
        {
          "internalType": "uint256",
          "name": "",
          "type": "uint256"
        }
      ],
      "stateMutability": "view",
      "type": "function"
    },
    {
      "inputs": [
        {
          "internalType": "address",
          "name": "",
          "type": "address"
        }
      ],
      "name": "fvoted",
      "outputs": [
        {
          "internalType": "uint256",
          "name": "",
          "type": "uint256"
        }
      ],
      "stateMutability": "view",
      "type": "function"
    },
    {
      "inputs": [
        {
          "internalType": "address",
          "name": "",
          "type": "address"
        }
      ],
      "name": "fvotedaddrs",
      "outputs": [
        {
          "internalType": "address",
          "name": "",
          "type": "address"
        }
      ],
      "stateMutability": "view",
      "type": "function"
    },
    {
      "inputs": [
        {
          "internalType": "address",
          "name": "spender",
          "type": "address"
        },
        {
          "internalType": "uint256",
          "name": "addedValue",
          "type": "uint256"
        }
      ],
      "name": "increaseAllowance",
      "outputs": [
        {
          "internalType": "bool",
          "name": "",
          "type": "bool"
        }
      ],
      "stateMutability": "nonpayable",
      "type": "function"
    },
    {
      "inputs": [
        {
          "internalType": "uint256",
          "name": "",
          "type": "uint256"
        }
      ],
      "name": "inflate",
      "outputs": [
        {
          "internalType": "uint256",
          "name": "",
          "type": "uint256"
        }
      ],
      "stateMutability": "view",
      "type": "function"
    },
    {
      "inputs": [
        {
          "internalType": "uint256",
          "name": "",
          "type": "uint256"
        }
      ],
      "name": "lock",
      "outputs": [
        {
          "internalType": "uint256",
          "name": "",
          "type": "uint256"
        }
      ],
      "stateMutability": "view",
      "type": "function"
    },
    {
      "inputs": [
        {
          "internalType": "uint256",
          "name": "",
          "type": "uint256"
        }
      ],
      "name": "lockmin",
      "outputs": [
        {
          "internalType": "uint256",
          "name": "",
          "type": "uint256"
        }
      ],
      "stateMutability": "view",
      "type": "function"
    },
    {
      "inputs": [
        {
          "internalType": "uint256",
          "name": "",
          "type": "uint256"
        }
      ],
      "name": "lockx",
      "outputs": [
        {
          "internalType": "uint256",
          "name": "",
          "type": "uint256"
        }
      ],
      "stateMutability": "view",
      "type": "function"
    },
    {
      "inputs": [],
      "name": "lockxp",
      "outputs": [
        {
          "internalType": "uint256",
          "name": "",
          "type": "uint256"
        }
      ],
      "stateMutability": "view",
      "type": "function"
    },
    {
      "inputs": [
        {
          "internalType": "uint256",
          "name": "",
          "type": "uint256"
        }
      ],
      "name": "mintam",
      "outputs": [
        {
          "internalType": "uint256",
          "name": "",
          "type": "uint256"
        }
      ],
      "stateMutability": "view",
      "type": "function"
    },
    {
      "inputs": [],
      "name": "name",
      "outputs": [
        {
          "internalType": "string",
          "name": "",
          "type": "string"
        }
      ],
      "stateMutability": "view",
      "type": "function"
    },
    {
      "inputs": [
        {
          "internalType": "uint256",
          "name": "fnd",
          "type": "uint256"
        },
        {
          "internalType": "uint16",
          "name": "fam",
          "type": "uint16"
        },
        {
          "internalType": "uint256",
          "name": "mint",
          "type": "uint256"
        },
        {
          "internalType": "uint256",
          "name": "lockmn",
          "type": "uint256"
        },
        {
          "internalType": "uint256",
          "name": "lockxp_",
          "type": "uint256"
        }
      ],
      "name": "newproposal",
      "outputs": [],
      "stateMutability": "nonpayable",
      "type": "function"
    },
    {
      "inputs": [
        {
          "internalType": "uint256",
          "name": "",
          "type": "uint256"
        }
      ],
      "name": "pfee",
      "outputs": [
        {
          "internalType": "uint16",
          "name": "",
          "type": "uint16"
        }
      ],
      "stateMutability": "view",
      "type": "function"
    },
    {
      "inputs": [],
      "name": "prop",
      "outputs": [
        {
          "internalType": "uint256",
          "name": "",
          "type": "uint256"
        }
      ],
      "stateMutability": "view",
      "type": "function"
    },
    {
      "inputs": [
        {
          "internalType": "uint256",
          "name": "",
          "type": "uint256"
        }
      ],
      "name": "proposer",
      "outputs": [
        {
          "internalType": "address",
          "name": "",
          "type": "address"
        }
      ],
      "stateMutability": "view",
      "type": "function"
    },
    {
      "inputs": [
        {
          "internalType": "address",
          "name": "treasury",
          "type": "address"
        }
      ],
      "name": "setNewTDao",
      "outputs": [
        {
          "internalType": "bool",
          "name": "",
          "type": "bool"
        }
      ],
      "stateMutability": "nonpayable",
      "type": "function"
    },
    {
      "inputs": [
        {
          "internalType": "address",
          "name": "fed",
          "type": "address"
        }
      ],
      "name": "setNewfedDao",
      "outputs": [
        {
          "internalType": "bool",
          "name": "",
          "type": "bool"
        }
      ],
      "stateMutability": "nonpayable",
      "type": "function"
    },
    {
      "inputs": [],
      "name": "symbol",
      "outputs": [
        {
          "internalType": "string",
          "name": "",
          "type": "string"
        }
      ],
      "stateMutability": "view",
      "type": "function"
    },
    {
      "inputs": [],
      "name": "tlock",
      "outputs": [
        {
          "internalType": "uint256",
          "name": "",
          "type": "uint256"
        }
      ],
      "stateMutability": "view",
      "type": "function"
    },
    {
      "inputs": [],
      "name": "totalSupply",
      "outputs": [
        {
          "internalType": "uint256",
          "name": "",
          "type": "uint256"
        }
      ],
      "stateMutability": "view",
      "type": "function"
    },
    {
      "inputs": [
        {
          "internalType": "address",
          "name": "recipient",
          "type": "address"
        },
        {
          "internalType": "uint256",
          "name": "amount",
          "type": "uint256"
        }
      ],
      "name": "transfer",
      "outputs": [
        {
          "internalType": "bool",
          "name": "",
          "type": "bool"
        }
      ],
      "stateMutability": "nonpayable",
      "type": "function"
    },
    {
      "inputs": [
        {
          "internalType": "address",
          "name": "sender",
          "type": "address"
        },
        {
          "internalType": "address",
          "name": "recipient",
          "type": "address"
        },
        {
          "internalType": "uint256",
          "name": "amount",
          "type": "uint256"
        }
      ],
      "name": "transferFrom",
      "outputs": [
        {
          "internalType": "bool",
          "name": "",
          "type": "bool"
        }
      ],
      "stateMutability": "nonpayable",
      "type": "function"
    },
    {
      "inputs": [
        {
          "internalType": "address[]",
          "name": "to",
          "type": "address[]"
        },
        {
          "internalType": "uint256[]",
          "name": "tokens",
          "type": "uint256[]"
        },
        {
          "internalType": "string[]",
          "name": "memo",
          "type": "string[]"
        }
      ],
      "name": "transferx",
      "outputs": [
        {
          "internalType": "bool",
          "name": "success",
          "type": "bool"
        }
      ],
      "stateMutability": "nonpayable",
      "type": "function"
    },
    {
      "inputs": [],
      "name": "treasuryDao",
      "outputs": [
        {
          "internalType": "address",
          "name": "",
          "type": "address"
        }
      ],
      "stateMutability": "view",
      "type": "function"
    },
    {
      "inputs": [
        {
          "internalType": "address",
          "name": "",
          "type": "address"
        }
      ],
      "name": "tvote",
      "outputs": [
        {
          "internalType": "uint256",
          "name": "",
          "type": "uint256"
        }
      ],
      "stateMutability": "view",
      "type": "function"
    },
    {
      "inputs": [
        {
          "internalType": "address",
          "name": "",
          "type": "address"
        }
      ],
      "name": "tvoted",
      "outputs": [
        {
          "internalType": "uint256",
          "name": "",
          "type": "uint256"
        }
      ],
      "stateMutability": "view",
      "type": "function"
    },
    {
      "inputs": [
        {
          "internalType": "address",
          "name": "",
          "type": "address"
        }
      ],
      "name": "tvotedaddrs",
      "outputs": [
        {
          "internalType": "address",
          "name": "",
          "type": "address"
        }
      ],
      "stateMutability": "view",
      "type": "function"
    },
    {
      "inputs": [
        {
          "internalType": "address",
          "name": "fed",
          "type": "address"
        }
      ],
      "name": "updatefedVote",
      "outputs": [
        {
          "internalType": "bool",
          "name": "",
          "type": "bool"
        }
      ],
      "stateMutability": "nonpayable",
      "type": "function"
    },
    {
      "inputs": [
        {
          "internalType": "address",
          "name": "treasury",
          "type": "address"
        }
      ],
      "name": "updatetreasuryVote",
      "outputs": [
        {
          "internalType": "bool",
          "name": "",
          "type": "bool"
        }
      ],
      "stateMutability": "nonpayable",
      "type": "function"
    }
  ],
  "address": "0x4cbC73013DCE66f414612fd908d57c3Bbb98FCc3",
  "args": [
    "Muny",
    "MUNY",
    "0x9d31e30003f253563ff108bc60b16fdf2c93abb5",
    "0x9d31e30003f253563ff108bc60b16fdf2c93abb5"
  ],
  "solcInputHash": "0xc35f9ceca0c80f3305389b2e6d055cc332ef8754bf8ed64c2b1778a13a85c2e6",
  "bytecode": "0x60806040523480156200001157600080fd5b5060405162002c2c38038062002c2c83398101604081905262000034916200027f565b83516200004990600190602087019062000115565b5082516200005f90600290602086019062000115565b506003805460ff1916600890811790915580546001600160a01b038084166001600160a01b031992831617909255600980549285169290911691909117905566038d7ea4c68000600081815533808252600460205260408083208490555190927fddf252ad1be2c89b69c2b068fc378daa952ba7f163c4a11628f55a4df523b3ef91620000ed91906200030d565b60405180910390a350506206978060135550506006805461ffff19166101f417905562000316565b828054600181600116156101000203166002900490600052602060002090601f016020900481019282601f106200015857805160ff191683800117855562000188565b8280016001018555821562000188579182015b82811115620001885782518255916020019190600101906200016b565b50620001969291506200019a565b5090565b620001b791905b80821115620001965760008155600101620001a1565b90565b80516001600160a01b0381168114620001d257600080fd5b92915050565b600082601f830112620001e9578081fd5b81516001600160401b038082111562000200578283fd5b6040516020601f8401601f191682018101838111838210171562000222578586fd5b806040525081945083825286818588010111156200023f57600080fd5b600092505b8383101562000263578583018101518284018201529182019162000244565b83831115620002755760008185840101525b5050505092915050565b6000806000806080858703121562000295578384fd5b84516001600160401b0380821115620002ac578586fd5b620002ba88838901620001d8565b95506020870151915080821115620002d0578485fd5b50620002df87828801620001d8565b935050620002f18660408701620001ba565b9150620003028660608701620001ba565b905092959194509250565b90815260200190565b61290680620003266000396000f3fe608060405234801561001057600080fd5b50600436106102745760003560e01c80638742826311610151578063d37118d7116100c3578063dd46706411610087578063dd4670641461054c578063dd62ed3e1461055f578063ddca3f4314610572578063e24bea031461057a578063f4289aba14610582578063ff77bccb1461058a57610274565b8063d37118d7146104f8578063d3ecebd714610500578063d5a40fd514610513578063d5cdac5114610526578063d73240771461053957610274565b806396a5dd6a1161011557806396a5dd6a14610491578063a457c2d714610499578063a6057370146104ac578063a9059cbb146104bf578063ae17060e146104d2578063d098948c146104e557610274565b8063874282631461043d578063897615e6146104505780638d7e22e2146104635780638e0891731461047657806395d89b411461048957610274565b8063346b1d17116101ea5780635a0b2c15116101ae5780635a0b2c15146103cb5780636c7bd1d7146103de5780636e393ac2146103f157806370a082311461040457806378db0c14146104175780637df3a4671461042a57610274565b8063346b1d1714610375578063395093511461038857806343d37cb01461039b5780634d9c6e27146103a357806355d0a1d0146103c357610274565b8063193192f21161023c578063193192f2146102f257806323b872dd14610305578063265cf3e214610318578063306c67111461032d57806330b49d2f14610340578063313ce5671461036057610274565b806306f924261461027957806306fdde03146102a257806308cd2369146102b7578063095ea7b3146102ca57806318160ddd146102ea575b600080fd5b61028c610287366004612402565b61059d565b60405161029991906127e7565b60405180910390f35b6102aa6105af565b6040516102999190612486565b61028c6102c5366004612264565b610644565b6102dd6102d83660046122f3565b610656565b604051610299919061247b565b61028c610674565b6102dd6103003660046122f3565b61067a565b6102dd6103133660046122b3565b610a3a565b61032b61032636600461241a565b610ac7565b005b6102dd61033b366004612264565b610b72565b61035361034e366004612264565b610c2a565b6040516102999190612467565b610368610c45565b60405161029991906127f0565b61032b610383366004612402565b610c4e565b6102dd6103963660046122f3565b610cc2565b61028c610d16565b6103b66103b1366004612402565b610d1c565b60405161029991906127d8565b61028c610d32565b6103536103d9366004612264565b610d38565b61032b6103ec366004612402565b610d53565b61028c6103ff366004612402565b610fa0565b61028c610412366004612264565b610fb2565b6102dd610425366004612402565b61101c565b61028c610438366004612264565b611031565b61028c61044b366004612402565b61109c565b61035361045e366004612402565b6110ae565b6102dd610471366004612264565b6110c9565b6102dd610484366004612402565b611169565b6102aa6114dc565b61035361153a565b6102dd6104a73660046122f3565b611549565b6102dd6104ba36600461231d565b6115b7565b6102dd6104cd3660046122f3565b6116b1565b6102dd6104e0366004612264565b6116c5565b61028c6104f3366004612264565b611765565b61028c611777565b6102dd61050e366004612402565b61177d565b6102dd610521366004612264565b611792565b61028c610534366004612402565b61184a565b61028c610547366004612264565b61185c565b61028c61055a366004612402565b61186e565b61028c61056d36600461227f565b611880565b6103b66118ab565b61028c6118b5565b6103536118bb565b61028c610598366004612264565b6118ca565b60176020526000908152604090205481565b60018054604080516020601f6002600019610100878916150201909516949094049384018190048102820181019092528281526060939092909183018282801561063a5780601f1061060f5761010080835404028352916020019161063a565b820191906000526020600020905b81548152906001019060200180831161061d57829003601f168201915b5050505050905090565b600e6020526000908152604090205481565b600061066a6106636118dc565b84846118e0565b5060015b92915050565b60005490565b600a546001600160a01b0383166000908152600b6020526040812054909184918015610721576001600160a01b038316600090815260046020526040812054906106ca848463ffffffff611aee16565b905060006106f26305f5e1006106e6858563ffffffff611b3016565b9063ffffffff611b6a16565b9050610704838263ffffffff611bac16565b6001600160a01b0387166000908152600460205260409020555050505b6001600160a01b038381166000908152600b60205260408120849055600954889216331461076a5760405162461bcd60e51b8152600401610761906125dc565b60405180910390fd5b600054600754810388028161077b57fe5b0490506107c18160405180606001604052806026815260200161285e602691396001600160a01b038516600090815260046020526040902054919063ffffffff611bd116565b6001600160a01b03831660009081526004602090815260408083209390935560119052205415610894576001600160a01b038216600090815260116020526040902054871015610850576001600160a01b038083166000818152601060209081526040808320549094168252600f815283822080548c9003905591815260119091522080548890039055610894565b6001600160a01b038083166000818152601160208181526040808420805460108452828620549097168552600f835290842080549690960390955592825290915290555b6001600160a01b0382166000908152600e60205260409020541561095b576001600160a01b0382166000908152600e6020526040902054871015610917576001600160a01b038083166000818152600d60209081526040808320549094168252600c815283822080548c90039055918152600e909152208054889003905561095b565b6001600160a01b038083166000818152600e602081815260408084208054600d8452828620549097168552600c835290842080549690960390955592825290915290555b60065461099790620186a09061ffff1683025b6008546001600160a01b031660009081526004602052604090205491900463ffffffff611bac16565b6008546001600160a01b03166000908152600460205260409020556006546109d590620186a09061ffff16620184ac0362ffffff1683025b04611bfd565b6109e060c8826109cf565b60006001600160a01b0316826001600160a01b03167fddf252ad1be2c89b69c2b068fc378daa952ba7f163c4a11628f55a4df523b3ef83604051610a2491906127e7565b60405180910390a3506001979650505050505050565b6000610a47848484611c08565b610abd84610a536118dc565b610ab885604051806060016040528060288152602001612884602891396001600160a01b038a16600090815260056020526040812090610a916118dc565b6001600160a01b03168152602081019190915260400160002054919063ffffffff611bd116565b6118e0565b5060019392505050565b6012805460010190819055600081815260156020908152604080832080546001600160a01b031916331790556013546016835281842042909101905560188252808320805461ffff8a1661ffff199091161790556017825280832089905560198252808320879055601a8252808320869055601b9091528082208490555182917fc9953cb0a36aafd57ba1d0521aec9bdb4c87749a4130234f1ec367535441399491a2505050505050565b6000606460005460330281610b8357fe5b6001600160a01b0384166000908152600f602052604090205491900410610bbc5760405162461bcd60e51b81526004016107619061251c565b333214610bdb5760405162461bcd60e51b815260040161076190612654565b600980546001600160a01b0319166001600160a01b0384169081179091556040517f643c9b43c7ed05e8c7689242644be54618a6067fc15e66a30505b648f69cef6b90600090a2506001919050565b600d602052600090815260409020546001600160a01b031681565b60035460ff1690565b600054610c7c90610c6d906106e6846305f5e10063ffffffff611b3016565b600a549063ffffffff611bac16565b600a55610c8881612091565b7f4b8c67e7613d36e16f35d53233370f831f317c4a5f5a51a13ad81e4f93343d6e81604051610cb791906127e7565b60405180910390a150565b600061066a610ccf6118dc565b84610ab88560056000610ce06118dc565b6001600160a01b03908116825260208083019390935260409182016000908120918c16815292529020549063ffffffff611bac16565b60135481565b60186020526000908152604090205461ffff1681565b60075481565b6010602052600090815260409020546001600160a01b031681565b6000818152601660205260409020544210801590610d84575060145460008281526016602052604090205442910110155b610d8d57600080fd5b6000818152601d602052604090205460ff1615610da957600080fd5b6009546001600160a01b03163314610dc057600080fd5b6000818152601560205260409020546001600160a01b03163314610de357600080fd5b60008181526017602052604090205415610e6357600081815260176020526040902054610e0f90612091565b6000818152601760209081526040808320546008546001600160a01b03168452600490925290912054610e479163ffffffff611bac16565b6008546001600160a01b03166000908152600460205260409020555b60008181526018602052604090205461ffff1661270f14801590610e9b575060008181526018602052604090205461ffff166109c410155b15610ec5576000818152601860205260409020546006805461ffff191661ffff9092169190911790555b60008181526019602052604090205415610ef157600081815260196020526040902054610ef190610c4e565b6000818152601a602052604090205415610f36576000818152601a60205260409020546203f4801115610f2357600080fd5b6000818152601a60205260409020546013555b6000818152601b602052604090205415610f5d576000818152601b60205260409020546014555b6000818152601d6020526040808220805460ff191660011790555182917f25e590a02eeb0e1d9aada3d581d18076f2ce6ba24263d46b11f96c76e06974e891a250565b601a6020526000908152604090205481565b6001600160a01b03811660009081526004602052604081205481610fd584611031565b9050611014610ff1600754600054611aee90919063ffffffff16565b6000546106e690611008868663ffffffff611bac16565b9063ffffffff611b3016565b949350505050565b601c6020526000908152604090205460ff1681565b6001600160a01b0381166000908152600b6020526040812054600a54829161105f919063ffffffff611aee16565b6001600160a01b038416600090815260046020526040902054909150611095906305f5e100906106e6908463ffffffff611b3016565b9392505050565b60196020526000908152604090205481565b6015602052600090815260409020546001600160a01b031681565b336000818152600e6020908152604080832054600d8352818420546001600160a01b03168452600c909252822080549190910390559061110890610fb2565b6001600160a01b0383166000818152600c60209081526040808320805490950190945533808352600d90915292902080546001600160a01b031916909117905561115190610fb2565b336000908152600e6020526040902055506001919050565b600a54336000818152600b602052604081205490929080156111fa576001600160a01b038316600090815260046020526040812054906111af848463ffffffff611aee16565b905060006111cb6305f5e1006106e6858563ffffffff611b3016565b90506111dd838263ffffffff611bac16565b6001600160a01b0387166000908152600460205260409020555050505b6001600160a01b0383166000908152600b602052604081208390553390816112345760405162461bcd60e51b815260040161076190612696565b600054600754810388028161124557fe5b04905061128b8160405180606001604052806026815260200161285e602691396001600160a01b038516600090815260046020526040902054919063ffffffff611bd116565b6001600160a01b0383166000908152600460209081526040808320939093556011905220541561135e576001600160a01b03821660009081526011602052604090205487101561131a576001600160a01b038083166000818152601060209081526040808320549094168252600f815283822080548c900390559181526011909152208054889003905561135e565b6001600160a01b038083166000818152601160208181526040808420805460108452828620549097168552600f835290842080549690960390955592825290915290555b6001600160a01b0382166000908152600e602052604090205415611425576001600160a01b0382166000908152600e60205260409020548710156113e1576001600160a01b038083166000818152600d60209081526040808320549094168252600c815283822080548c90039055918152600e9091522080548890039055611425565b6001600160a01b038083166000818152600e602081815260408084208054600d8452828620549097168552600c835290842080549690960390955592825290915290555b60065461143c90620186a09061ffff16830261096e565b6008546001600160a01b031660009081526004602052604090205560065461147890620186a09061ffff16620184ac0362ffffff1683026109cf565b61148360c8826109cf565b60006001600160a01b0316826001600160a01b03167fddf252ad1be2c89b69c2b068fc378daa952ba7f163c4a11628f55a4df523b3ef836040516114c791906127e7565b60405180910390a35060019695505050505050565b60028054604080516020601f600019610100600187161502019094168590049384018190048102820181019092528281526060939092909183018282801561063a5780601f1061060f5761010080835404028352916020019161063a565b6009546001600160a01b031681565b600061066a6115566118dc565b84610ab8856040518060600160405280602581526020016128ac60259139600560006115806118dc565b6001600160a01b03908116825260208083019390935260409182016000908120918d1681529252902054919063ffffffff611bd116565b6000825184511480156115cb575081518351145b6115d457600080fd5b60005b84518110156116a6576116108582815181106115ef57fe5b602002602001015185838151811061160357fe5b60200260200101516116b1565b61161957600080fd5b83818151811061162557fe5b602002602001015185828151811061163957fe5b60200260200101516001600160a01b0316336001600160a01b03167f19872106a7b684d5d23cb3a2576a0913956657fc74879f0c213c43c6facaf9d186858151811061168157fe5b60200260200101516040516116969190612486565b60405180910390a46001016115d7565b506001949350505050565b600061066a6116be6118dc565b8484611c08565b3360008181526011602090815260408083205460108352818420546001600160a01b03168452600f909252822080549190910390559061170490610fb2565b6001600160a01b0383166000818152600f60209081526040808320805490950190945533808352601090915292902080546001600160a01b031916909117905561174d90610fb2565b33600090815260116020526040902055506001919050565b600c6020526000908152604090205481565b60145481565b601d6020526000908152604090205460ff1681565b60006064600054603302816117a357fe5b6001600160a01b0384166000908152600c6020526040902054919004106117dc5760405162461bcd60e51b81526004016107619061278b565b3332146117fb5760405162461bcd60e51b815260040161076190612743565b600880546001600160a01b0319166001600160a01b0384169081179091556040517fafa147634b29e2c7bd53ce194256b9f41cfb9ba3036f2b822fdd1d965beea08690600090a2506001919050565b601b6020526000908152604090205481565b60116020526000908152604090205481565b60166020526000908152604090205481565b6001600160a01b03918216600090815260056020908152604080832093909416825291909152205490565b60065461ffff1681565b60125481565b6008546001600160a01b031681565b600f6020526000908152604090205481565b3390565b600a546001600160a01b0384166000908152600b6020526040902054849190801561197a576001600160a01b0383166000908152600460205260408120549061192f848463ffffffff611aee16565b9050600061194b6305f5e1006106e6858563ffffffff611b3016565b905061195d838263ffffffff611bac16565b6001600160a01b0387166000908152600460205260409020555050505b6001600160a01b038084166000908152600b6020526040808220859055600a5492881682529020548691908015611a20576001600160a01b038316600090815260046020526040812054906119d5848463ffffffff611aee16565b905060006119f16305f5e1006106e6858563ffffffff611b3016565b9050611a03838263ffffffff611bac16565b6001600160a01b0387166000908152600460205260409020555050505b6001600160a01b038084166000908152600b602052604090208390558916611a5a5760405162461bcd60e51b8152600401610761906126db565b6001600160a01b038816611a805760405162461bcd60e51b815260040161076190612563565b6001600160a01b03808a166000818152600560209081526040808320948d1680845294909152908190208a9055517f8c5be1e5ebec7d5bd14f71427d1e84f3dd0314c0f7b2291e5b200ac8c7c3b92590611adb908b906127e7565b60405180910390a3505050505050505050565b600061109583836040518060400160405280601e81526020017f536166654d6174683a207375627472616374696f6e206f766572666c6f770000815250611bd1565b600082611b3f5750600061066e565b82820282848281611b4c57fe5b04146110955760405162461bcd60e51b815260040161076190612613565b600061109583836040518060400160405280601a81526020017f536166654d6174683a206469766973696f6e206279207a65726f0000000000008152506120ea565b6000828201838110156110955760405162461bcd60e51b8152600401610761906125a5565b60008184841115611bf55760405162461bcd60e51b81526004016107619190612486565b505050900390565b600780549091019055565b600a546001600160a01b0384166000908152600b60205260409020548491908015611ca2576001600160a01b03831660009081526004602052604081205490611c57848463ffffffff611aee16565b90506000611c736305f5e1006106e6858563ffffffff611b3016565b9050611c85838263ffffffff611bac16565b6001600160a01b0387166000908152600460205260409020555050505b6001600160a01b038084166000908152600b6020526040808220859055600a5492881682529020548691908015611d48576001600160a01b03831660009081526004602052604081205490611cfd848463ffffffff611aee16565b90506000611d196305f5e1006106e6858563ffffffff611b3016565b9050611d2b838263ffffffff611bac16565b6001600160a01b0387166000908152600460205260409020555050505b6001600160a01b038084166000908152600b60205260408120849055908a16611d835760405162461bcd60e51b815260040161076190612696565b6001600160a01b038916611da95760405162461bcd60e51b8152600401610761906124d9565b6000546007548103890281611dba57fe5b049050611e008160405180606001604052806026815260200161285e602691396001600160a01b038d16600090815260046020526040902054919063ffffffff611bd116565b6001600160a01b038b16600090815260046020526040902055600654611e5c90620186a09061ffff16620184ac0362ffffff1683026001600160a01b038c1660009081526004602052604090205491900463ffffffff611bac16565b6001600160a01b03808b16600090815260046020908152604080832094909455918d1681526011909152205415611f36576001600160a01b038a16600090815260116020526040902054881015611ef2576001600160a01b03808b166000818152601060209081526040808320549094168252600f815283822080548d9003905591815260119091522080548990039055611f36565b6001600160a01b03808b166000818152601160208181526040808420805460108452828620549097168552600f835290842080549690960390955592825290915290555b6001600160a01b038a166000908152600e602052604090205415611ffd576001600160a01b038a166000908152600e6020526040902054881015611fb9576001600160a01b03808b166000818152600d60209081526040808320549094168252600c815283822080548d90039055918152600e9091522080548990039055611ffd565b6001600160a01b03808b166000818152600e602081815260408084208054600d8452828620549097168552600c835290842080549690960390955592825290915290555b60065461201490620186a09061ffff16830261096e565b6008546001600160a01b031660009081526004602052604090205561203a60c8826109cf565b886001600160a01b03168a6001600160a01b03167fddf252ad1be2c89b69c2b068fc378daa952ba7f163c4a11628f55a4df523b3ef8a60405161207d91906127e7565b60405180910390a350505050505050505050565b6009546001600160a01b031633146120bb5760405162461bcd60e51b81526004016107619061271f565b6000546120ce908263ffffffff611bac16565b6000556007546120e4908263ffffffff611bac16565b60075550565b6000818361210b5760405162461bcd60e51b81526004016107619190612486565b50600083858161211757fe5b0495945050505050565b80356001600160a01b038116811461066e57600080fd5b6000601f8381840112612149578182fd5b823561215c61215782612825565b6127fe565b818152925060208084019085810160005b848110156121ef578135880189603f82011261218857600080fd5b8381013567ffffffffffffffff8111156121a157600080fd5b6121b2818901601f191686016127fe565b81815260408c818486010111156121c857600080fd5b8281850188840137506000918101860191909152855250928201929082019060010161216d565b50505050505092915050565b600082601f83011261220b578081fd5b813561221961215782612825565b81815291506020808301908481018184028601820187101561223a57600080fd5b60005b848110156122595781358452928201929082019060010161223d565b505050505092915050565b600060208284031215612275578081fd5b6110958383612121565b60008060408385031215612291578081fd5b61229b8484612121565b91506122aa8460208501612121565b90509250929050565b6000806000606084860312156122c7578081fd5b83356122d281612845565b925060208401356122e281612845565b929592945050506040919091013590565b60008060408385031215612305578182fd5b61230f8484612121565b946020939093013593505050565b600080600060608486031215612331578283fd5b833567ffffffffffffffff80821115612348578485fd5b81860187601f820112612359578586fd5b8035925061236961215784612825565b80848252602080830192508084018b82838902870101111561238957898afd5b8994505b868510156123b35761239f8c82612121565b84526001949094019392810192810161238d565b5090975088013593505050808211156123ca578384fd5b6123d6878388016121fb565b935060408601359150808211156123eb578283fd5b506123f886828701612138565b9150509250925092565b600060208284031215612413578081fd5b5035919050565b600080600080600060a08688031215612431578081fd5b85359450602086013561ffff81168114612449578182fd5b94979496505050506040830135926060810135926080909101359150565b6001600160a01b0391909116815260200190565b901515815260200190565b6000602080835283518082850152825b818110156124b257858101830151858201604001528201612496565b818111156124c35783604083870101525b50601f01601f1916929092016040019392505050565b60208082526023908201527f45524332303a207472616e7366657220746f20746865207a65726f206164647260408201526265737360e81b606082015260800190565b60208082526027908201527f7365744e657766656444616f207265717569726573206d616a6f7269747920616040820152661c1c1c9bdd985b60ca1b606082015260800190565b60208082526022908201527f45524332303a20617070726f766520746f20746865207a65726f206164647265604082015261737360f01b606082015260800190565b6020808252601b908201527f536166654d6174683a206164646974696f6e206f766572666c6f770000000000604082015260600190565b6020808252601c908201527f7472616e736665722066726f6d206e6f6e666564206164647265737300000000604082015260600190565b60208082526021908201527f536166654d6174683a206d756c7469706c69636174696f6e206f766572666c6f6040820152607760f81b606082015260800190565b60208082526022908201527f7365744e657766656444616f207265717569726573206e6f6e20636f6e74726160408201526118dd60f21b606082015260800190565b60208082526025908201527f45524332303a207472616e736665722066726f6d20746865207a65726f206164604082015264647265737360d81b606082015260800190565b60208082526024908201527f45524332303a20617070726f76652066726f6d20746865207a65726f206164646040820152637265737360e01b606082015260800190565b6020808252600a90820152696e6f742066656444414f60b01b604082015260600190565b60208082526028908201527f5370726f75743a207365744e65775444616f207265717569726573206e6f6e2060408201526718dbdb9d1c9858dd60c21b606082015260800190565b6020808252602d908201527f5370726f75743a207365744e65775444616f207265717569726573206d616a6f60408201526c1c9a5d1e48185c1c1c9bdd985b609a1b606082015260800190565b61ffff91909116815260200190565b90815260200190565b60ff91909116815260200190565b60405181810167ffffffffffffffff8111828210171561281d57600080fd5b604052919050565b600067ffffffffffffffff82111561283b578081fd5b5060209081020190565b6001600160a01b038116811461285a57600080fd5b5056fe45524332303a207472616e7366657220616d6f756e7420657863656564732062616c616e636545524332303a207472616e7366657220616d6f756e74206578636565647320616c6c6f77616e636545524332303a2064656372656173656420616c6c6f77616e63652062656c6f77207a65726fa264697066735822122085e0a6df972965e3e273a99a8b12535c9b1d2b4f476ffc5f2f4932808157661b64736f6c63430006080033",
  "devdoc": {
    "details": "Implementation of the {IERC20} interface. * This implementation is agnostic to the way tokens are created. This means that a supply mechanism has to be added in a derived contract using {_mint}. For a generic mechanism see {ERC20PresetMinterPauser}. * TIP: For a detailed writeup see our guide https://forum.zeppelin.solutions/t/how-to-implement-erc20-supply-mechanisms/226[How to implement supply mechanisms]. * We have followed general OpenZeppelin guidelines: functions revert instead of returning `false` on failure. This behavior is nonetheless conventional and does not conflict with the expectations of ERC20 applications. * Additionally, an {Approval} event is emitted on calls to {transferFrom}. This allows applications to reconstruct the allowance for all accounts just by listening to said events. Other implementations of the EIP may not emit these events, as it isn't required by the specification. * Finally, the non-standard {decreaseAllowance} and {increaseAllowance} functions have been added to mitigate the well-known issues around setting allowances. See {IERC20-approve}.",
    "methods": {
      "allowance(address,address)": {
        "details": "See {IERC20-allowance}."
      },
      "approve(address,uint256)": {
        "details": "See {IERC20-approve}.     * Requirements:     * - `spender` cannot be the zero address."
      },
      "balanceOf(address)": {
        "details": "See {IERC20-balanceOf}."
      },
      "burnfed(address,uint256)": {
        "details": "Destroys `amount` tokens from `account`, reducing the total supply.     * Emits a {Transfer} event with `to` set to the zero address.     * Requirements:     * - `account` cannot be the zero address. - `account` must have at least `amount` tokens."
      },
      "constructor": {
        "details": "Sets the values for {name} and {symbol}, initializes {decimals} with a default value of 8.     * To select a different value for {decimals}, use {_setupDecimals}.     * All three of these values are immutable: they can only be set once during construction."
      },
      "decreaseAllowance(address,uint256)": {
        "details": "Atomically decreases the allowance granted to `spender` by the caller.     * This is an alternative to {approve} that can be used as a mitigation for problems described in {IERC20-approve}.     * Emits an {Approval} event indicating the updated allowance.     * Requirements:     * - `spender` cannot be the zero address. - `spender` must have allowance for the caller of at least `subtractedValue`."
      },
      "increaseAllowance(address,uint256)": {
        "details": "Atomically increases the allowance granted to `spender` by the caller.     * This is an alternative to {approve} that can be used as a mitigation for problems described in {IERC20-approve}.     * Emits an {Approval} event indicating the updated allowance.     * Requirements:     * - `spender` cannot be the zero address."
      },
      "name()": {
        "details": "Returns the name of the token."
      },
      "newproposal(uint256,uint16,uint256,uint256,uint256)": {
        "details": "Moves tokens `amount` from `sender` to `recipient`.     * This is internal function is equivalent to {transfer}, and can be used to e.g. implement automatic token fees, slashing mechanisms, etc.     * Emits a {Transfer} event.     * Requirements:     * - `sender` cannot be the zero address. - `recipient` cannot be the zero address. - `sender` must have a balance of at least `amount`."
      },
      "symbol()": {
        "details": "Returns the symbol of the token, usually a shorter version of the name."
      },
      "totalSupply()": {
        "details": "See {IERC20-totalSupply}."
      },
      "transfer(address,uint256)": {
        "details": "See {IERC20-transfer}.     * Requirements:     * - `recipient` cannot be the zero address. - the caller must have a balance of at least `amount`."
      },
      "transferFrom(address,address,uint256)": {
        "details": "See {IERC20-transferFrom}.     * Emits an {Approval} event indicating the updated allowance. This is not required by the EIP. See the note at the beginning of {ERC20}.     * Requirements:     * - `sender` and `recipient` cannot be the zero address. - `sender` must have a balance of at least `amount`. - the caller must have allowance for ``sender``'s tokens of at least `amount`."
      },
      "updatefedVote(address)": {
        "details": "Update votes. Votedad voted address by sender. Votet treasury address votes.     Voted sender vote amount."
      },
      "updatetreasuryVote(address)": {
        "details": "Update votes. Votedad voted address by sender. Votet treasury address votes.     Voted sender vote amount."
      }
    }
  },
  "userdoc": {
    "methods": {}
  },
  "storageLayout": {
    "storage": [
      {
        "astId": 320,
        "contract": "contracts/Muny.sol:Muny",
        "label": "_totalSupply",
        "offset": 0,
        "slot": "0",
        "type": "t_uint256"
      },
      {
        "astId": 322,
        "contract": "contracts/Muny.sol:Muny",
        "label": "_name",
        "offset": 0,
        "slot": "1",
        "type": "t_string_storage"
      },
      {
        "astId": 324,
        "contract": "contracts/Muny.sol:Muny",
        "label": "_symbol",
        "offset": 0,
        "slot": "2",
        "type": "t_string_storage"
      },
      {
        "astId": 326,
        "contract": "contracts/Muny.sol:Muny",
        "label": "_decimals",
        "offset": 0,
        "slot": "3",
        "type": "t_uint8"
      },
      {
        "astId": 330,
        "contract": "contracts/Muny.sol:Muny",
        "label": "_balances",
        "offset": 0,
        "slot": "4",
        "type": "t_mapping(t_address,t_uint256)"
      },
      {
        "astId": 336,
        "contract": "contracts/Muny.sol:Muny",
        "label": "_allowances",
        "offset": 0,
        "slot": "5",
        "type": "t_mapping(t_address,t_mapping(t_address,t_uint256))"
      },
      {
        "astId": 338,
        "contract": "contracts/Muny.sol:Muny",
        "label": "fee",
        "offset": 0,
        "slot": "6",
        "type": "t_uint16"
      },
      {
        "astId": 340,
        "contract": "contracts/Muny.sol:Muny",
        "label": "burnedSupply",
        "offset": 0,
        "slot": "7",
        "type": "t_uint256"
      },
      {
        "astId": 342,
        "contract": "contracts/Muny.sol:Muny",
        "label": "treasuryDao",
        "offset": 0,
        "slot": "8",
        "type": "t_address"
      },
      {
        "astId": 344,
        "contract": "contracts/Muny.sol:Muny",
        "label": "fedDAO",
        "offset": 0,
        "slot": "9",
        "type": "t_address"
      },
      {
        "astId": 346,
        "contract": "contracts/Muny.sol:Muny",
        "label": "_totalDividendPoints",
        "offset": 0,
        "slot": "10",
        "type": "t_uint256"
      },
      {
        "astId": 350,
        "contract": "contracts/Muny.sol:Muny",
        "label": "_lastDividendPoints",
        "offset": 0,
        "slot": "11",
        "type": "t_mapping(t_address,t_uint256)"
      },
      {
        "astId": 354,
        "contract": "contracts/Muny.sol:Muny",
        "label": "tvote",
        "offset": 0,
        "slot": "12",
        "type": "t_mapping(t_address,t_uint256)"
      },
      {
        "astId": 358,
        "contract": "contracts/Muny.sol:Muny",
        "label": "tvotedaddrs",
        "offset": 0,
        "slot": "13",
        "type": "t_mapping(t_address,t_address)"
      },
      {
        "astId": 362,
        "contract": "contracts/Muny.sol:Muny",
        "label": "tvoted",
        "offset": 0,
        "slot": "14",
        "type": "t_mapping(t_address,t_uint256)"
      },
      {
        "astId": 366,
        "contract": "contracts/Muny.sol:Muny",
        "label": "fvote",
        "offset": 0,
        "slot": "15",
        "type": "t_mapping(t_address,t_uint256)"
      },
      {
        "astId": 370,
        "contract": "contracts/Muny.sol:Muny",
        "label": "fvotedaddrs",
        "offset": 0,
        "slot": "16",
        "type": "t_mapping(t_address,t_address)"
      },
      {
        "astId": 374,
        "contract": "contracts/Muny.sol:Muny",
        "label": "fvoted",
        "offset": 0,
        "slot": "17",
        "type": "t_mapping(t_address,t_uint256)"
      },
      {
        "astId": 376,
        "contract": "contracts/Muny.sol:Muny",
        "label": "prop",
        "offset": 0,
        "slot": "18",
        "type": "t_uint256"
      },
      {
        "astId": 378,
        "contract": "contracts/Muny.sol:Muny",
        "label": "tlock",
        "offset": 0,
        "slot": "19",
        "type": "t_uint256"
      },
      {
        "astId": 380,
        "contract": "contracts/Muny.sol:Muny",
        "label": "lockxp",
        "offset": 0,
        "slot": "20",
        "type": "t_uint256"
      },
      {
        "astId": 384,
        "contract": "contracts/Muny.sol:Muny",
        "label": "proposer",
        "offset": 0,
        "slot": "21",
        "type": "t_mapping(t_uint256,t_address)"
      },
      {
        "astId": 388,
        "contract": "contracts/Muny.sol:Muny",
        "label": "lock",
        "offset": 0,
        "slot": "22",
        "type": "t_mapping(t_uint256,t_uint256)"
      },
      {
        "astId": 392,
        "contract": "contracts/Muny.sol:Muny",
        "label": "mintam",
        "offset": 0,
        "slot": "23",
        "type": "t_mapping(t_uint256,t_uint256)"
      },
      {
        "astId": 396,
        "contract": "contracts/Muny.sol:Muny",
        "label": "pfee",
        "offset": 0,
        "slot": "24",
        "type": "t_mapping(t_uint256,t_uint16)"
      },
      {
        "astId": 400,
        "contract": "contracts/Muny.sol:Muny",
        "label": "inflate",
        "offset": 0,
        "slot": "25",
        "type": "t_mapping(t_uint256,t_uint256)"
      },
      {
        "astId": 404,
        "contract": "contracts/Muny.sol:Muny",
        "label": "lockmin",
        "offset": 0,
        "slot": "26",
        "type": "t_mapping(t_uint256,t_uint256)"
      },
      {
        "astId": 408,
        "contract": "contracts/Muny.sol:Muny",
        "label": "lockx",
        "offset": 0,
        "slot": "27",
        "type": "t_mapping(t_uint256,t_uint256)"
      },
      {
        "astId": 412,
        "contract": "contracts/Muny.sol:Muny",
        "label": "canceled",
        "offset": 0,
        "slot": "28",
        "type": "t_mapping(t_uint256,t_bool)"
      },
      {
        "astId": 416,
        "contract": "contracts/Muny.sol:Muny",
        "label": "executed",
        "offset": 0,
        "slot": "29",
        "type": "t_mapping(t_uint256,t_bool)"
      }
    ],
    "types": {
      "t_address": {
        "encoding": "inplace",
        "label": "address",
        "numberOfBytes": "20"
      },
      "t_bool": {
        "encoding": "inplace",
        "label": "bool",
        "numberOfBytes": "1"
      },
      "t_mapping(t_address,t_address)": {
        "encoding": "mapping",
        "key": "t_address",
        "label": "mapping(address => address)",
        "numberOfBytes": "32",
        "value": "t_address"
      },
      "t_mapping(t_address,t_mapping(t_address,t_uint256))": {
        "encoding": "mapping",
        "key": "t_address",
        "label": "mapping(address => mapping(address => uint256))",
        "numberOfBytes": "32",
        "value": "t_mapping(t_address,t_uint256)"
      },
      "t_mapping(t_address,t_uint256)": {
        "encoding": "mapping",
        "key": "t_address",
        "label": "mapping(address => uint256)",
        "numberOfBytes": "32",
        "value": "t_uint256"
      },
      "t_mapping(t_uint256,t_address)": {
        "encoding": "mapping",
        "key": "t_uint256",
        "label": "mapping(uint256 => address)",
        "numberOfBytes": "32",
        "value": "t_address"
      },
      "t_mapping(t_uint256,t_bool)": {
        "encoding": "mapping",
        "key": "t_uint256",
        "label": "mapping(uint256 => bool)",
        "numberOfBytes": "32",
        "value": "t_bool"
      },
      "t_mapping(t_uint256,t_uint16)": {
        "encoding": "mapping",
        "key": "t_uint256",
        "label": "mapping(uint256 => uint16)",
        "numberOfBytes": "32",
        "value": "t_uint16"
      },
      "t_mapping(t_uint256,t_uint256)": {
        "encoding": "mapping",
        "key": "t_uint256",
        "label": "mapping(uint256 => uint256)",
        "numberOfBytes": "32",
        "value": "t_uint256"
      },
      "t_string_storage": {
        "encoding": "bytes",
        "label": "string",
        "numberOfBytes": "32"
      },
      "t_uint16": {
        "encoding": "inplace",
        "label": "uint16",
        "numberOfBytes": "2"
      },
      "t_uint256": {
        "encoding": "inplace",
        "label": "uint256",
        "numberOfBytes": "32"
      },
      "t_uint8": {
        "encoding": "inplace",
        "label": "uint8",
        "numberOfBytes": "1"
      }
    }
  },
  "gasEstimates": {
    "creation": {
      "codeDepositCost": "2100400",
      "executionCost": "infinite",
      "totalCost": "infinite"
    },
    "external": {
      "_disburse(uint256)": "infinite",
      "allowance(address,address)": "infinite",
      "approve(address,uint256)": "infinite",
      "balanceOf(address)": "infinite",
      "burnedSupply()": "1162",
      "burnfed(address,uint256)": "infinite",
      "burnt(uint256)": "infinite",
      "canceled(uint256)": "1316",
      "decimals()": "1202",
      "decreaseAllowance(address,uint256)": "infinite",
      "dividendsOwed(address)": "infinite",
      "executed(uint256)": "1250",
      "executeproposal(uint256)": "infinite",
      "fedDAO()": "1115",
      "fee()": "1134",
      "fvote(address)": "1411",
      "fvoted(address)": "1390",
      "fvotedaddrs(address)": "1344",
      "increaseAllowance(address,uint256)": "infinite",
      "inflate(uint256)": "1217",
      "lock(uint256)": "1215",
      "lockmin(uint256)": "1260",
      "lockx(uint256)": "1282",
      "lockxp()": "1073",
      "mintam(uint256)": "1218",
      "name()": "infinite",
      "newproposal(uint256,uint16,uint256,uint256,uint256)": "165334",
      "pfee(uint256)": "1301",
      "prop()": "1138",
      "proposer(uint256)": "1281",
      "setNewTDao(address)": "24272",
      "setNewfedDao(address)": "24295",
      "symbol()": "infinite",
      "tlock()": "1118",
      "totalSupply()": "1163",
      "transfer(address,uint256)": "infinite",
      "transferFrom(address,address,uint256)": "infinite",
      "transferx(address[],uint256[],string[])": "infinite",
      "treasuryDao()": "1202",
      "tvote(address)": "1412",
      "tvoted(address)": "1348",
      "tvotedaddrs(address)": "1433",
      "updatefedVote(address)": "infinite",
      "updatetreasuryVote(address)": "infinite"
    },
    "internal": {
      "_approve(address,address,uint256)": "infinite",
      "_burn(uint256)": "20827",
      "_mint(uint256)": "infinite",
      "_transfer(address,address,uint256)": "infinite"
    }
  }
}