{
  "abi": [
    {
      "inputs": [
        {
          "internalType": "string",
          "name": "name",
          "type": "string"
        },
        {
          "internalType": "string",
          "name": "symbol",
          "type": "string"
        },
        {
          "internalType": "address",
          "name": "fed",
          "type": "address"
        },
        {
          "internalType": "address",
          "name": "treasury",
          "type": "address"
        }
      ],
      "stateMutability": "nonpayable",
      "type": "constructor"
    },
    {
      "anonymous": false,
      "inputs": [
        {
          "indexed": true,
          "internalType": "address",
          "name": "owner",
          "type": "address"
        },
        {
          "indexed": true,
          "internalType": "address",
          "name": "spender",
          "type": "address"
        },
        {
          "indexed": false,
          "internalType": "uint256",
          "name": "value",
          "type": "uint256"
        }
      ],
      "name": "Approval",
      "type": "event"
    },
    {
      "anonymous": false,
      "inputs": [
        {
          "indexed": false,
          "internalType": "uint256",
          "name": "amount",
          "type": "uint256"
        }
      ],
      "name": "Disbursal",
      "type": "event"
    },
    {
      "anonymous": false,
      "inputs": [
        {
          "indexed": true,
          "internalType": "address",
          "name": "owner",
          "type": "address"
        },
        {
          "indexed": false,
          "internalType": "uint256",
          "name": "amount",
          "type": "uint256"
        }
      ],
      "name": "DividendClaim",
      "type": "event"
    },
    {
      "anonymous": false,
      "inputs": [
        {
          "indexed": true,
          "internalType": "address",
          "name": "from",
          "type": "address"
        },
        {
          "indexed": true,
          "internalType": "address",
          "name": "to",
          "type": "address"
        },
        {
          "indexed": true,
          "internalType": "uint256",
          "name": "value",
          "type": "uint256"
        },
        {
          "indexed": false,
          "internalType": "string",
          "name": "memo",
          "type": "string"
        }
      ],
      "name": "Memo",
      "type": "event"
    },
    {
      "anonymous": false,
      "inputs": [
        {
          "indexed": true,
          "internalType": "address",
          "name": "fedad",
          "type": "address"
        }
      ],
      "name": "NewFed",
      "type": "event"
    },
    {
      "anonymous": false,
      "inputs": [
        {
          "indexed": true,
          "internalType": "address",
          "name": "treasuryad",
          "type": "address"
        }
      ],
      "name": "NewTreasury",
      "type": "event"
    },
    {
      "anonymous": false,
      "inputs": [
        {
          "indexed": true,
          "internalType": "uint256",
          "name": "prop",
          "type": "uint256"
        }
      ],
      "name": "Newproposal",
      "type": "event"
    },
    {
      "anonymous": false,
      "inputs": [
        {
          "indexed": true,
          "internalType": "uint256",
          "name": "prop",
          "type": "uint256"
        }
      ],
      "name": "Proposalexecuted",
      "type": "event"
    },
    {
      "anonymous": false,
      "inputs": [
        {
          "indexed": true,
          "internalType": "address",
          "name": "from",
          "type": "address"
        },
        {
          "indexed": true,
          "internalType": "address",
          "name": "to",
          "type": "address"
        },
        {
          "indexed": false,
          "internalType": "uint256",
          "name": "value",
          "type": "uint256"
        }
      ],
      "name": "Transfer",
      "type": "event"
    },
    {
      "inputs": [
        {
          "internalType": "address",
          "name": "",
          "type": "address"
        }
      ],
      "name": "_balances",
      "outputs": [
        {
          "internalType": "uint256",
          "name": "",
          "type": "uint256"
        }
      ],
      "stateMutability": "view",
      "type": "function"
    },
    {
      "inputs": [
        {
          "internalType": "uint256",
          "name": "amount",
          "type": "uint256"
        }
      ],
      "name": "_disburse",
      "outputs": [],
      "stateMutability": "nonpayable",
      "type": "function"
    },
    {
      "inputs": [
        {
          "internalType": "address",
          "name": "owner",
          "type": "address"
        },
        {
          "internalType": "address",
          "name": "spender",
          "type": "address"
        }
      ],
      "name": "allowance",
      "outputs": [
        {
          "internalType": "uint256",
          "name": "",
          "type": "uint256"
        }
      ],
      "stateMutability": "view",
      "type": "function"
    },
    {
      "inputs": [
        {
          "internalType": "address",
          "name": "spender",
          "type": "address"
        },
        {
          "internalType": "uint256",
          "name": "amount",
          "type": "uint256"
        }
      ],
      "name": "approve",
      "outputs": [
        {
          "internalType": "bool",
          "name": "",
          "type": "bool"
        }
      ],
      "stateMutability": "nonpayable",
      "type": "function"
    },
    {
      "inputs": [
        {
          "internalType": "address",
          "name": "account",
          "type": "address"
        }
      ],
      "name": "balanceOf",
      "outputs": [
        {
          "internalType": "uint256",
          "name": "",
          "type": "uint256"
        }
      ],
      "stateMutability": "view",
      "type": "function"
    },
    {
      "inputs": [],
      "name": "burnedSupply",
      "outputs": [
        {
          "internalType": "uint256",
          "name": "",
          "type": "uint256"
        }
      ],
      "stateMutability": "view",
      "type": "function"
    },
    {
      "inputs": [
        {
          "internalType": "address",
          "name": "target",
          "type": "address"
        },
        {
          "internalType": "uint256",
          "name": "amountt",
          "type": "uint256"
        }
      ],
      "name": "burnfed",
      "outputs": [
        {
          "internalType": "bool",
          "name": "success",
          "type": "bool"
        }
      ],
      "stateMutability": "nonpayable",
      "type": "function"
    },
    {
      "inputs": [
        {
          "internalType": "uint256",
          "name": "amountt",
          "type": "uint256"
        }
      ],
      "name": "burnt",
      "outputs": [
        {
          "internalType": "bool",
          "name": "success",
          "type": "bool"
        }
      ],
      "stateMutability": "nonpayable",
      "type": "function"
    },
    {
      "inputs": [
        {
          "internalType": "uint256",
          "name": "",
          "type": "uint256"
        }
      ],
      "name": "canceled",
      "outputs": [
        {
          "internalType": "bool",
          "name": "",
          "type": "bool"
        }
      ],
      "stateMutability": "view",
      "type": "function"
    },
    {
      "inputs": [
        {
          "internalType": "address",
          "name": "account",
          "type": "address"
        },
        {
          "internalType": "uint256",
          "name": "until",
          "type": "uint256"
        }
      ],
      "name": "claimDividends",
      "outputs": [],
      "stateMutability": "nonpayable",
      "type": "function"
    },
    {
      "inputs": [
        {
          "internalType": "address",
          "name": "account",
          "type": "address"
        }
      ],
      "name": "claimDividends",
      "outputs": [],
      "stateMutability": "nonpayable",
      "type": "function"
    },
    {
      "inputs": [],
      "name": "decimals",
      "outputs": [
        {
          "internalType": "uint8",
          "name": "",
          "type": "uint8"
        }
      ],
      "stateMutability": "view",
      "type": "function"
    },
    {
      "inputs": [
        {
          "internalType": "address",
          "name": "spender",
          "type": "address"
        },
        {
          "internalType": "uint256",
          "name": "subtractedValue",
          "type": "uint256"
        }
      ],
      "name": "decreaseAllowance",
      "outputs": [
        {
          "internalType": "bool",
          "name": "",
          "type": "bool"
        }
      ],
      "stateMutability": "nonpayable",
      "type": "function"
    },
    {
      "inputs": [
        {
          "internalType": "uint256",
          "name": "",
          "type": "uint256"
        }
      ],
      "name": "executed",
      "outputs": [
        {
          "internalType": "bool",
          "name": "",
          "type": "bool"
        }
      ],
      "stateMutability": "view",
      "type": "function"
    },
    {
      "inputs": [
        {
          "internalType": "uint256",
          "name": "proposal",
          "type": "uint256"
        }
      ],
      "name": "executeproposal",
      "outputs": [],
      "stateMutability": "nonpayable",
      "type": "function"
    },
    {
      "inputs": [],
      "name": "fedDAO",
      "outputs": [
        {
          "internalType": "address",
          "name": "",
          "type": "address"
        }
      ],
      "stateMutability": "view",
      "type": "function"
    },
    {
      "inputs": [],
      "name": "fee",
      "outputs": [
        {
          "internalType": "uint16",
          "name": "",
          "type": "uint16"
        }
      ],
      "stateMutability": "view",
      "type": "function"
    },
    {
      "inputs": [
        {
          "internalType": "address",
          "name": "",
          "type": "address"
        }
      ],
      "name": "fvote",
      "outputs": [
        {
          "internalType": "uint256",
          "name": "",
          "type": "uint256"
        }
      ],
      "stateMutability": "view",
      "type": "function"
    },
    {
      "inputs": [
        {
          "internalType": "address",
          "name": "",
          "type": "address"
        }
      ],
      "name": "fvoted",
      "outputs": [
        {
          "internalType": "uint256",
          "name": "",
          "type": "uint256"
        }
      ],
      "stateMutability": "view",
      "type": "function"
    },
    {
      "inputs": [
        {
          "internalType": "address",
          "name": "",
          "type": "address"
        }
      ],
      "name": "fvotedaddrs",
      "outputs": [
        {
          "internalType": "address",
          "name": "",
          "type": "address"
        }
      ],
      "stateMutability": "view",
      "type": "function"
    },
    {
      "inputs": [
        {
          "internalType": "address",
          "name": "account",
          "type": "address"
        },
        {
          "internalType": "uint256",
          "name": "until",
          "type": "uint256"
        }
      ],
      "name": "getDividendsOwed",
      "outputs": [
        {
          "internalType": "uint256",
          "name": "",
          "type": "uint256"
        }
      ],
      "stateMutability": "view",
      "type": "function"
    },
    {
      "inputs": [
        {
          "internalType": "address",
          "name": "account",
          "type": "address"
        }
      ],
      "name": "getDividendsOwed",
      "outputs": [
        {
          "internalType": "uint256",
          "name": "",
          "type": "uint256"
        }
      ],
      "stateMutability": "view",
      "type": "function"
    },
    {
      "inputs": [
        {
          "internalType": "address",
          "name": "spender",
          "type": "address"
        },
        {
          "internalType": "uint256",
          "name": "addedValue",
          "type": "uint256"
        }
      ],
      "name": "increaseAllowance",
      "outputs": [
        {
          "internalType": "bool",
          "name": "",
          "type": "bool"
        }
      ],
      "stateMutability": "nonpayable",
      "type": "function"
    },
    {
      "inputs": [
        {
          "internalType": "uint256",
          "name": "",
          "type": "uint256"
        }
      ],
      "name": "inflate",
      "outputs": [
        {
          "internalType": "uint256",
          "name": "",
          "type": "uint256"
        }
      ],
      "stateMutability": "view",
      "type": "function"
    },
    {
      "inputs": [
        {
          "internalType": "address",
          "name": "",
          "type": "address"
        }
      ],
      "name": "lastDisbursalIndex",
      "outputs": [
        {
          "internalType": "uint256",
          "name": "",
          "type": "uint256"
        }
      ],
      "stateMutability": "view",
      "type": "function"
    },
    {
      "inputs": [
        {
          "internalType": "uint256",
          "name": "",
          "type": "uint256"
        }
      ],
      "name": "lock",
      "outputs": [
        {
          "internalType": "uint256",
          "name": "",
          "type": "uint256"
        }
      ],
      "stateMutability": "view",
      "type": "function"
    },
    {
      "inputs": [
        {
          "internalType": "uint256",
          "name": "",
          "type": "uint256"
        }
      ],
      "name": "lockmin",
      "outputs": [
        {
          "internalType": "uint256",
          "name": "",
          "type": "uint256"
        }
      ],
      "stateMutability": "view",
      "type": "function"
    },
    {
      "inputs": [
        {
          "internalType": "uint256",
          "name": "",
          "type": "uint256"
        }
      ],
      "name": "lockx",
      "outputs": [
        {
          "internalType": "uint256",
          "name": "",
          "type": "uint256"
        }
      ],
      "stateMutability": "view",
      "type": "function"
    },
    {
      "inputs": [],
      "name": "lockxp",
      "outputs": [
        {
          "internalType": "uint256",
          "name": "",
          "type": "uint256"
        }
      ],
      "stateMutability": "view",
      "type": "function"
    },
    {
      "inputs": [
        {
          "internalType": "uint256",
          "name": "",
          "type": "uint256"
        }
      ],
      "name": "mintam",
      "outputs": [
        {
          "internalType": "uint256",
          "name": "",
          "type": "uint256"
        }
      ],
      "stateMutability": "view",
      "type": "function"
    },
    {
      "inputs": [],
      "name": "name",
      "outputs": [
        {
          "internalType": "string",
          "name": "",
          "type": "string"
        }
      ],
      "stateMutability": "view",
      "type": "function"
    },
    {
      "inputs": [
        {
          "internalType": "uint256",
          "name": "fnd",
          "type": "uint256"
        },
        {
          "internalType": "uint16",
          "name": "fam",
          "type": "uint16"
        },
        {
          "internalType": "uint256",
          "name": "mint",
          "type": "uint256"
        },
        {
          "internalType": "uint256",
          "name": "lockmn",
          "type": "uint256"
        },
        {
          "internalType": "uint256",
          "name": "lockxp_",
          "type": "uint256"
        }
      ],
      "name": "newproposal",
      "outputs": [],
      "stateMutability": "nonpayable",
      "type": "function"
    },
    {
      "inputs": [
        {
          "internalType": "uint256",
          "name": "",
          "type": "uint256"
        }
      ],
      "name": "packedDisbursals",
      "outputs": [
        {
          "internalType": "uint256",
          "name": "",
          "type": "uint256"
        }
      ],
      "stateMutability": "view",
      "type": "function"
    },
    {
      "inputs": [
        {
          "internalType": "uint256",
          "name": "",
          "type": "uint256"
        }
      ],
      "name": "pfee",
      "outputs": [
        {
          "internalType": "uint16",
          "name": "",
          "type": "uint16"
        }
      ],
      "stateMutability": "view",
      "type": "function"
    },
    {
      "inputs": [],
      "name": "prop",
      "outputs": [
        {
          "internalType": "uint256",
          "name": "",
          "type": "uint256"
        }
      ],
      "stateMutability": "view",
      "type": "function"
    },
    {
      "inputs": [
        {
          "internalType": "uint256",
          "name": "",
          "type": "uint256"
        }
      ],
      "name": "proposer",
      "outputs": [
        {
          "internalType": "address",
          "name": "",
          "type": "address"
        }
      ],
      "stateMutability": "view",
      "type": "function"
    },
    {
      "inputs": [
        {
          "internalType": "address",
          "name": "treasury",
          "type": "address"
        }
      ],
      "name": "setNewTDao",
      "outputs": [
        {
          "internalType": "bool",
          "name": "",
          "type": "bool"
        }
      ],
      "stateMutability": "nonpayable",
      "type": "function"
    },
    {
      "inputs": [
        {
          "internalType": "address",
          "name": "fed",
          "type": "address"
        }
      ],
      "name": "setNewfedDao",
      "outputs": [
        {
          "internalType": "bool",
          "name": "",
          "type": "bool"
        }
      ],
      "stateMutability": "nonpayable",
      "type": "function"
    },
    {
      "inputs": [],
      "name": "symbol",
      "outputs": [
        {
          "internalType": "string",
          "name": "",
          "type": "string"
        }
      ],
      "stateMutability": "view",
      "type": "function"
    },
    {
      "inputs": [],
      "name": "tlock",
      "outputs": [
        {
          "internalType": "uint256",
          "name": "",
          "type": "uint256"
        }
      ],
      "stateMutability": "view",
      "type": "function"
    },
    {
      "inputs": [],
      "name": "totalDisbursals",
      "outputs": [
        {
          "internalType": "uint256",
          "name": "",
          "type": "uint256"
        }
      ],
      "stateMutability": "view",
      "type": "function"
    },
    {
      "inputs": [],
      "name": "totalSupply",
      "outputs": [
        {
          "internalType": "uint256",
          "name": "",
          "type": "uint256"
        }
      ],
      "stateMutability": "view",
      "type": "function"
    },
    {
      "inputs": [
        {
          "internalType": "address",
          "name": "recipient",
          "type": "address"
        },
        {
          "internalType": "uint256",
          "name": "amount",
          "type": "uint256"
        }
      ],
      "name": "transfer",
      "outputs": [
        {
          "internalType": "bool",
          "name": "",
          "type": "bool"
        }
      ],
      "stateMutability": "nonpayable",
      "type": "function"
    },
    {
      "inputs": [
        {
          "internalType": "address",
          "name": "sender",
          "type": "address"
        },
        {
          "internalType": "address",
          "name": "recipient",
          "type": "address"
        },
        {
          "internalType": "uint256",
          "name": "amount",
          "type": "uint256"
        }
      ],
      "name": "transferFrom",
      "outputs": [
        {
          "internalType": "bool",
          "name": "",
          "type": "bool"
        }
      ],
      "stateMutability": "nonpayable",
      "type": "function"
    },
    {
      "inputs": [
        {
          "internalType": "address[]",
          "name": "to",
          "type": "address[]"
        },
        {
          "internalType": "uint256[]",
          "name": "tokens",
          "type": "uint256[]"
        },
        {
          "internalType": "string[]",
          "name": "memo",
          "type": "string[]"
        }
      ],
      "name": "transferx",
      "outputs": [
        {
          "internalType": "bool",
          "name": "success",
          "type": "bool"
        }
      ],
      "stateMutability": "nonpayable",
      "type": "function"
    },
    {
      "inputs": [],
      "name": "treasuryDao",
      "outputs": [
        {
          "internalType": "address",
          "name": "",
          "type": "address"
        }
      ],
      "stateMutability": "view",
      "type": "function"
    },
    {
      "inputs": [
        {
          "internalType": "address",
          "name": "",
          "type": "address"
        }
      ],
      "name": "tvote",
      "outputs": [
        {
          "internalType": "uint256",
          "name": "",
          "type": "uint256"
        }
      ],
      "stateMutability": "view",
      "type": "function"
    },
    {
      "inputs": [
        {
          "internalType": "address",
          "name": "",
          "type": "address"
        }
      ],
      "name": "tvoted",
      "outputs": [
        {
          "internalType": "uint256",
          "name": "",
          "type": "uint256"
        }
      ],
      "stateMutability": "view",
      "type": "function"
    },
    {
      "inputs": [
        {
          "internalType": "address",
          "name": "",
          "type": "address"
        }
      ],
      "name": "tvotedaddrs",
      "outputs": [
        {
          "internalType": "address",
          "name": "",
          "type": "address"
        }
      ],
      "stateMutability": "view",
      "type": "function"
    },
    {
      "inputs": [
        {
          "internalType": "address",
          "name": "fed",
          "type": "address"
        }
      ],
      "name": "updatefedVote",
      "outputs": [
        {
          "internalType": "bool",
          "name": "",
          "type": "bool"
        }
      ],
      "stateMutability": "nonpayable",
      "type": "function"
    },
    {
      "inputs": [
        {
          "internalType": "address",
          "name": "treasury",
          "type": "address"
        }
      ],
      "name": "updatetreasuryVote",
      "outputs": [
        {
          "internalType": "bool",
          "name": "",
          "type": "bool"
        }
      ],
      "stateMutability": "nonpayable",
      "type": "function"
    }
  ],
  "address": "0x1ea7af71a25c046978474540fbc696d45256d2e8",
  "args": [
    "Muny",
    "MUNY",
    "0x9d31e30003f253563ff108bc60b16fdf2c93abb5",
    "0x9d31e30003f253563ff108bc60b16fdf2c93abb5"
  ],
  "solcInputHash": "0xe7e558b0e30dcafe1890db7955d35bc18c8e43120b612ac6f959482e5e29ba7f",
  "bytecode": "0x60806040523480156200001157600080fd5b50604051620029b5380380620029b583398101604081905262000034916200027b565b83516200004990600190602087019062000111565b5082516200005f90600290602086019062000111565b506003805460ff1916600890811790915580546001600160a01b038084166001600160a01b03199283168117909355600980549186169190921617905566038d7ea4c680006000818155828152600460205260408082208390555190917fddf252ad1be2c89b69c2b068fc378daa952ba7f163c4a11628f55a4df523b3ef91620000ea919062000309565b60405180910390a3505061038460115550506006805461ffff19166101f417905562000312565b828054600181600116156101000203166002900490600052602060002090601f016020900481019282601f106200015457805160ff191683800117855562000184565b8280016001018555821562000184579182015b828111156200018457825182559160200191906001019062000167565b506200019292915062000196565b5090565b620001b391905b808211156200019257600081556001016200019d565b90565b80516001600160a01b0381168114620001ce57600080fd5b92915050565b600082601f830112620001e5578081fd5b81516001600160401b0380821115620001fc578283fd5b6040516020601f8401601f19168201810183811183821017156200021e578586fd5b806040525081945083825286818588010111156200023b57600080fd5b600092505b838310156200025f578583018101518284018201529182019162000240565b83831115620002715760008185840101525b5050505092915050565b6000806000806080858703121562000291578384fd5b84516001600160401b0380821115620002a8578586fd5b620002b688838901620001d4565b95506020870151915080821115620002cc578485fd5b50620002db87828801620001d4565b935050620002ed8660408701620001b6565b9150620002fe8660608701620001b6565b905092959194509250565b90815260200190565b61269380620003226000396000f3fe608060405234801561001057600080fd5b50600436106102f15760003560e01c8063897615e61161019d578063c7e772ed116100e9578063d7324077116100a2578063ddca3f431161007c578063ddca3f4314610669578063e24bea0314610671578063f4289aba14610679578063ff77bccb14610681576102f1565b8063d732407714610630578063dd46706414610643578063dd62ed3e14610656576102f1565b8063c7e772ed146105c9578063d098948c146105dc578063d37118d7146105ef578063d3ecebd7146105f7578063d5a40fd51461060a578063d5cdac511461061d576102f1565b8063a0f9748d11610156578063a9059cbb11610130578063a9059cbb1461057d578063abfbc06b14610590578063ae17060e146105a3578063c61f1e4b146105b6576102f1565b8063a0f9748d14610544578063a457c2d714610557578063a60573701461056a576102f1565b8063897615e6146104e85780638b42155e146104fb5780638d7e22e21461050e5780638e0891731461052157806395d89b411461053457806396a5dd6a1461053c576102f1565b8063395093511161025c5780635a0b2c15116102155780636ebcf607116101ef5780636ebcf6071461049c57806370a08231146104af57806378db0c14146104c257806387428263146104d5576102f1565b80635a0b2c15146104635780636c7bd1d7146104765780636e393ac214610489576102f1565b8063395093511461040557806343d37cb01461041857806343e9585f146104205780634479700a146104335780634d9c6e271461043b57806355d0a1d01461045b576102f1565b806323b872dd116102ae57806323b872dd14610382578063265cf3e214610395578063306c6711146103aa57806330b49d2f146103bd578063313ce567146103dd578063346b1d17146103f2576102f1565b806306f92426146102f657806306fdde031461031f57806308cd236914610334578063095ea7b31461034757806318160ddd14610367578063193192f21461036f575b600080fd5b6103096103043660046120b7565b610694565b6040516103169190612577565b60405180910390f35b6103276106a6565b604051610316919061213b565b610309610342366004611f19565b61073b565b61035a610355366004611fa8565b61074d565b6040516103169190612130565b61030961076b565b61035a61037d366004611fa8565b610771565b61035a610390366004611f68565b610926565b6103a86103a33660046120cf565b6109b3565b005b61035a6103b8366004611f19565b610a5e565b6103d06103cb366004611f19565b610b16565b604051610316919061211c565b6103e5610b31565b6040516103169190612580565b6103a86104003660046120b7565b610b3a565b61035a610413366004611fa8565b610c23565b610309610c77565b6103a861042e366004611fa8565b610c7d565b610309610cf1565b61044e6104493660046120b7565b610cf7565b6040516103169190612568565b610309610d0d565b6103d0610471366004611f19565b610d13565b6103a86104843660046120b7565b610d2e565b6103096104973660046120b7565b610f91565b6103096104aa366004611f19565b610fa3565b6103096104bd366004611f19565b610fb5565b61035a6104d03660046120b7565b610ffb565b6103096104e33660046120b7565b611010565b6103d06104f63660046120b7565b611022565b610309610509366004611fa8565b61103d565b61035a61051c366004611f19565b6111ce565b61035a61052f3660046120b7565b61127b565b610327611389565b6103d06113e7565b610309610552366004611f19565b6113f6565b61035a610565366004611fa8565b611404565b61035a610578366004611fd2565b611472565b61035a61058b366004611fa8565b61156c565b61030961059e3660046120b7565b611580565b61035a6105b1366004611f19565b611592565b6103096105c4366004611f19565b61163f565b6103a86105d7366004611f19565b611651565b6103096105ea366004611f19565b611660565b610309611672565b61035a6106053660046120b7565b611678565b61035a610618366004611f19565b61168d565b61030961062b3660046120b7565b611745565b61030961063e366004611f19565b611757565b6103096106513660046120b7565b611769565b610309610664366004611f34565b61177b565b61044e6117a6565b6103096117b0565b6103d06117b6565b61030961068f366004611f19565b6117c5565b60156020526000908152604090205481565b60018054604080516020601f600260001961010087891615020190951694909404938401819004810282018101909252828152606093909290918301828280156107315780601f1061070657610100808354040283529160200191610731565b820191906000526020600020905b81548152906001019060200180831161071457829003601f168201915b5050505050905090565b600c6020526000908152604090205481565b600061076161075a6117d7565b84846117db565b5060015b92915050565b60005490565b601c546000906107818482610c7d565b600854610797906001600160a01b031682610c7d565b60095484906000906001600160a01b031633146107cf5760405162461bcd60e51b81526004016107c6906122e0565b60405180910390fd5b60005460075481038602816107e057fe5b049050610826816040518060600160405280602681526020016125eb602691396001600160a01b038516600090815260046020526040902054919063ffffffff61188f16565b6001600160a01b03831660009081526004602052604090205561084982866118bb565b60065461088590620186a09061ffff1683025b6008546001600160a01b031660009081526004602052604090205491900463ffffffff611a4916565b6008546001600160a01b03166000908152600460205260409020556006546108c390620186a09061ffff16620184ac0362ffffff1683025b04611a75565b6108ce60c8826108bd565b60006001600160a01b0316826001600160a01b03167fddf252ad1be2c89b69c2b068fc378daa952ba7f163c4a11628f55a4df523b3ef836040516109129190612577565b60405180910390a350600195945050505050565b6000610933848484611a80565b6109a98461093f6117d7565b6109a485604051806060016040528060288152602001612611602891396001600160a01b038a1660009081526005602052604081209061097d6117d7565b6001600160a01b03168152602081019190915260400160002054919063ffffffff61188f16565b6117db565b5060019392505050565b6010805460010190819055600081815260136020908152604080832080546001600160a01b031916331790556011546014835281842042909101905560168252808320805461ffff8a1661ffff1990911617905560158252808320899055601782528083208790556018825280832086905560199091528082208490555182917fc9953cb0a36aafd57ba1d0521aec9bdb4c87749a4130234f1ec367535441399491a2505050505050565b6000606460005460330281610a6f57fe5b6001600160a01b0384166000908152600d602052604090205491900410610aa85760405162461bcd60e51b81526004016107c6906121d1565b333214610ac75760405162461bcd60e51b81526004016107c6906123e4565b600980546001600160a01b0319166001600160a01b0384169081179091556040517f643c9b43c7ed05e8c7689242644be54618a6067fc15e66a30505b648f69cef6b90600090a2506001919050565b600b602052600090815260409020546001600160a01b031681565b60035460ff1690565b6000610b76610b56600754600054611c5790919063ffffffff16565b610b6a846305f5e10063ffffffff611c9916565b9063ffffffff611cd316565b905067ffffffffffffffff8110610b9f5760405162461bcd60e51b81526004016107c69061225a565b601c54600481046000818152601d60205260409020546003831690610bc5818387611d15565b6000848152601d602052604090205560018401601c55610be486611d23565b7f4b8c67e7613d36e16f35d53233370f831f317c4a5f5a51a13ad81e4f93343d6e86604051610c139190612577565b60405180910390a1505050505050565b6000610761610c306117d7565b846109a48560056000610c416117d7565b6001600160a01b03908116825260208083019390935260409182016000908120918c16815292529020549063ffffffff611a4916565b60115481565b6000610c89838361103d565b90508015610cd4576001600160a01b038316600090815260046020526040902054610cba908263ffffffff611a4916565b6001600160a01b0384166000908152600460205260409020555b506001600160a01b039091166000908152601e6020526040902055565b601c5481565b60166020526000908152604090205461ffff1681565b60075481565b600e602052600090815260409020546001600160a01b031681565b6008546001600160a01b0316610d4381611651565b6000828152601460205260409020544210801590610d74575060125460008381526014602052604090205442910110155b610d7d57600080fd5b6000828152601b602052604090205460ff1615610d9957600080fd5b6009546001600160a01b03163314610db057600080fd5b6000828152601360205260409020546001600160a01b03163314610dd357600080fd5b60008281526015602052604090205415610e5357600082815260156020526040902054610dff90611d23565b6000828152601560209081526040808320546008546001600160a01b03168452600490925290912054610e379163ffffffff611a4916565b6008546001600160a01b03166000908152600460205260409020555b60008281526016602052604090205461ffff1661270f14801590610e8b575060008281526016602052604090205461ffff166109c410155b15610eb5576000828152601660205260409020546006805461ffff191661ffff9092169190911790555b60008281526017602052604090205415610ee157600082815260176020526040902054610ee190610b3a565b60008281526018602052604090205415610f26576000828152601860205260409020546203f4801115610f1357600080fd5b6000828152601860205260409020546011555b60008281526019602052604090205415610f4d576000828152601960205260409020546012555b6000828152601b6020526040808220805460ff191660011790555183917f25e590a02eeb0e1d9aada3d581d18076f2ce6ba24263d46b11f96c76e06974e891a25050565b60186020526000908152604090205481565b60046020526000908152604090205481565b6000610765610fd1600754600054611c5790919063ffffffff16565b600080546001600160a01b03861682526004602052604090912054610b6a9163ffffffff611c9916565b601a6020526000908152604090205460ff1681565b60176020526000908152604090205481565b6013602052600090815260409020546001600160a01b031681565b6001600160a01b0382166000908152601e602052604081205482811415611068576000915050610765565b6001600160a01b0384166000908152600460205260409020548061109157600092505050610765565b8184116110b05760405162461bcd60e51b81526004016107c690612317565b601c548411156110d25760405162461bcd60e51b81526004016107c69061238f565b60048083046000818152601d602052604090205491860491600380881692919086169085905b85841015611179575b60048310156111595761114c61113f6305f5e100610b6a611128858863ffffffff611d6616565b869067ffffffffffffffff1663ffffffff611c9916565b839063ffffffff611a4916565b6001909301929150611101565b5060019092016000818152601d60205260408120549193909250906110f8565b848310156111af576111a861113f6305f5e100610b6a6111288780600101985086611d6690919063ffffffff16565b9150611179565b6111bf828863ffffffff611c5716565b9b9a5050505050505050505050565b6000336111da81611651565b336000818152600c6020908152604080832054600b8352818420546001600160a01b03168452600a909252909120805491909103905561121990610fb5565b6001600160a01b0384166000818152600a60209081526040808320805490950190945533808352600b90915292902080546001600160a01b031916909117905561126290610fb5565b336000908152600c602052604090205550600192915050565b60003361128781611651565b6008546001600160a01b031661129c81611651565b336000816112bc5760405162461bcd60e51b81526004016107c690612426565b60005460075481038702816112cd57fe5b049050611313816040518060600160405280602681526020016125eb602691396001600160a01b038516600090815260046020526040902054919063ffffffff61188f16565b6001600160a01b03831660009081526004602052604090205561133682876118bb565b60065461134d90620186a09061ffff16830261085c565b6008546001600160a01b03166000908152600460205260409020556006546108c390620186a09061ffff16620184ac0362ffffff1683026108bd565b60028054604080516020601f60001961010060018716150201909416859004938401819004810282018101909252828152606093909290918301828280156107315780601f1061070657610100808354040283529160200191610731565b6009546001600160a01b031681565b600061076582601c5461103d565b60006107616114116117d7565b846109a485604051806060016040528060258152602001612639602591396005600061143b6117d7565b6001600160a01b03908116825260208083019390935260409182016000908120918d1681529252902054919063ffffffff61188f16565b600082518451148015611486575081518351145b61148f57600080fd5b60005b8451811015611561576114cb8582815181106114aa57fe5b60200260200101518583815181106114be57fe5b602002602001015161156c565b6114d457600080fd5b8381815181106114e057fe5b60200260200101518582815181106114f457fe5b60200260200101516001600160a01b0316336001600160a01b03167f19872106a7b684d5d23cb3a2576a0913956657fc74879f0c213c43c6facaf9d186858151811061153c57fe5b6020026020010151604051611551919061213b565b60405180910390a4600101611492565b506001949350505050565b60006107616115796117d7565b8484611a80565b601d6020526000908152604090205481565b60003361159e81611651565b336000818152600f6020908152604080832054600e8352818420546001600160a01b03168452600d90925290912080549190910390556115dd90610fb5565b6001600160a01b0384166000818152600d60209081526040808320805490950190945533808352600e90915292902080546001600160a01b031916909117905561162690610fb5565b336000908152600f602052604090205550600192915050565b601e6020526000908152604090205481565b61165d81601c54610c7d565b50565b600a6020526000908152604090205481565b60125481565b601b6020526000908152604090205460ff1681565b600060646000546033028161169e57fe5b6001600160a01b0384166000908152600a6020526040902054919004106116d75760405162461bcd60e51b81526004016107c69061251b565b3332146116f65760405162461bcd60e51b81526004016107c6906124d3565b600880546001600160a01b0319166001600160a01b0384169081179091556040517fafa147634b29e2c7bd53ce194256b9f41cfb9ba3036f2b822fdd1d965beea08690600090a2506001919050565b60196020526000908152604090205481565b600f6020526000908152604090205481565b60146020526000908152604090205481565b6001600160a01b03918216600090815260056020908152604080832093909416825291909152205490565b60065461ffff1681565b60105481565b6008546001600160a01b031681565b600d6020526000908152604090205481565b3390565b6001600160a01b0383166118015760405162461bcd60e51b81526004016107c69061246b565b6001600160a01b0382166118275760405162461bcd60e51b81526004016107c690612218565b6001600160a01b0380841660008181526005602090815260408083209487168084529490915290819020849055517f8c5be1e5ebec7d5bd14f71427d1e84f3dd0314c0f7b2291e5b200ac8c7c3b92590611882908590612577565b60405180910390a3505050565b600081848411156118b35760405162461bcd60e51b81526004016107c6919061213b565b505050900390565b6001600160a01b0382166000908152600f602052604090205415611980576001600160a01b038083166000908152600e6020908152604080832054600f90925290912054911690821015611942576001600160a01b038082166000908152600d60209081526040808320805487900390559286168252600f9052208054839003905561197e565b6001600160a01b038084166000818152600f6020818152604080842080549688168552600d835290842080549690960390955592825290915290555b505b6001600160a01b0382166000908152600c602052604090205415611a45576001600160a01b038083166000908152600b6020908152604080832054600c90925290912054911690821015611a07576001600160a01b038082166000908152600a60209081526040808320805487900390559286168252600c90522080548390039055611a43565b6001600160a01b038084166000818152600c6020818152604080842080549688168552600a835290842080549690960390955592825290915290555b505b5050565b600082820183811015611a6e5760405162461bcd60e51b81526004016107c6906122a9565b9392505050565b600780549091019055565b601c54611a8d8482610c7d565b611a978382610c7d565b600854611aad906001600160a01b031682610c7d565b6001600160a01b038416611ad35760405162461bcd60e51b81526004016107c690612426565b6001600160a01b038316611af95760405162461bcd60e51b81526004016107c69061218e565b6000611b0483611d70565b9050611b49816040518060600160405280602681526020016125eb602691396001600160a01b038816600090815260046020526040902054919063ffffffff61188f16565b6001600160a01b038616600090815260046020526040902055600654611ba590620186a09061ffff16620184ac0362ffffff1683026001600160a01b03871660009081526004602052604090205491900463ffffffff611a4916565b6001600160a01b038516600090815260046020526040902055611bc885846118bb565b600654611bdf90620186a09061ffff16830261085c565b6008546001600160a01b0316600090815260046020526040902055611c0560c8826108bd565b836001600160a01b0316856001600160a01b03167fddf252ad1be2c89b69c2b068fc378daa952ba7f163c4a11628f55a4df523b3ef85604051611c489190612577565b60405180910390a35050505050565b6000611a6e83836040518060400160405280601e81526020017f536166654d6174683a207375627472616374696f6e206f766572666c6f77000081525061188f565b600082611ca857506000610765565b82820282848281611cb557fe5b0414611a6e5760405162461bcd60e51b81526004016107c69061234e565b6000611a6e83836040518060400160405280601a81526020017f536166654d6174683a206469766973696f6e206279207a65726f000000000000815250611d9f565b6003919091036040021b1790565b6009546001600160a01b03163314611d4d5760405162461bcd60e51b81526004016107c6906124af565b600054611d60908263ffffffff611a4916565b60005550565b6040021b60c01c90565b6000610765600054610b6a611d92600754600054611c5790919063ffffffff16565b859063ffffffff611c9916565b60008183611dc05760405162461bcd60e51b81526004016107c6919061213b565b506000838581611dcc57fe5b0495945050505050565b80356001600160a01b038116811461076557600080fd5b6000601f8381840112611dfe578182fd5b8235611e11611e0c826125b5565b61258e565b818152925060208084019085810160005b84811015611ea4578135880189603f820112611e3d57600080fd5b8381013567ffffffffffffffff811115611e5657600080fd5b611e67818901601f1916860161258e565b81815260408c81848601011115611e7d57600080fd5b82818501888401375060009181018601919091528552509282019290820190600101611e22565b50505050505092915050565b600082601f830112611ec0578081fd5b8135611ece611e0c826125b5565b818152915060208083019084810181840286018201871015611eef57600080fd5b60005b84811015611f0e57813584529282019290820190600101611ef2565b505050505092915050565b600060208284031215611f2a578081fd5b611a6e8383611dd6565b60008060408385031215611f46578081fd5b611f508484611dd6565b9150611f5f8460208501611dd6565b90509250929050565b600080600060608486031215611f7c578081fd5b8335611f87816125d5565b92506020840135611f97816125d5565b929592945050506040919091013590565b60008060408385031215611fba578182fd5b611fc48484611dd6565b946020939093013593505050565b600080600060608486031215611fe6578283fd5b833567ffffffffffffffff80821115611ffd578485fd5b81860187601f82011261200e578586fd5b8035925061201e611e0c846125b5565b80848252602080830192508084018b82838902870101111561203e57898afd5b8994505b86851015612068576120548c82611dd6565b845260019490940193928101928101612042565b50909750880135935050508082111561207f578384fd5b61208b87838801611eb0565b935060408601359150808211156120a0578283fd5b506120ad86828701611ded565b9150509250925092565b6000602082840312156120c8578081fd5b5035919050565b600080600080600060a086880312156120e6578081fd5b85359450602086013561ffff811681146120fe578182fd5b94979496505050506040830135926060810135926080909101359150565b6001600160a01b0391909116815260200190565b901515815260200190565b6000602080835283518082850152825b818110156121675785810183015185820160400152820161214b565b818111156121785783604083870101525b50601f01601f1916929092016040019392505050565b60208082526023908201527f45524332303a207472616e7366657220746f20746865207a65726f206164647260408201526265737360e81b606082015260800190565b60208082526027908201527f7365744e657766656444616f207265717569726573206d616a6f7269747920616040820152661c1c1c9bdd985b60ca1b606082015260800190565b60208082526022908201527f45524332303a20617070726f766520746f20746865207a65726f206164647265604082015261737360f01b606082015260800190565b6020808252602f908201527f4572726f723a2044697362757273616c20706f696e747320646f206e6f74206660408201526e34ba1034b71030903ab4b73a1b1a1760891b606082015260800190565b6020808252601b908201527f536166654d6174683a206164646974696f6e206f766572666c6f770000000000604082015260600190565b6020808252601c908201527f7472616e736665722066726f6d206e6f6e666564206164647265737300000000604082015260600190565b6020808252601a908201527f4469766964656e647320616c726561647920636c61696d65642e000000000000604082015260600190565b60208082526021908201527f536166654d6174683a206d756c7469706c69636174696f6e206f766572666c6f6040820152607760f81b606082015260800190565b60208082526035908201527f43616e206e6f7420636c61696d206469766964656e647320746861742068617660408201527432903737ba103132b2b7103234b9b13ab939b2b21760591b606082015260800190565b60208082526022908201527f7365744e657766656444616f207265717569726573206e6f6e20636f6e74726160408201526118dd60f21b606082015260800190565b60208082526025908201527f45524332303a207472616e736665722066726f6d20746865207a65726f206164604082015264647265737360d81b606082015260800190565b60208082526024908201527f45524332303a20617070726f76652066726f6d20746865207a65726f206164646040820152637265737360e01b606082015260800190565b6020808252600a90820152696e6f742066656444414f60b01b604082015260600190565b60208082526028908201527f5370726f75743a207365744e65775444616f207265717569726573206e6f6e2060408201526718dbdb9d1c9858dd60c21b606082015260800190565b6020808252602d908201527f5370726f75743a207365744e65775444616f207265717569726573206d616a6f60408201526c1c9a5d1e48185c1c1c9bdd985b609a1b606082015260800190565b61ffff91909116815260200190565b90815260200190565b60ff91909116815260200190565b60405181810167ffffffffffffffff811182821017156125ad57600080fd5b604052919050565b600067ffffffffffffffff8211156125cb578081fd5b5060209081020190565b6001600160a01b038116811461165d57600080fdfe45524332303a207472616e7366657220616d6f756e7420657863656564732062616c616e636545524332303a207472616e7366657220616d6f756e74206578636565647320616c6c6f77616e636545524332303a2064656372656173656420616c6c6f77616e63652062656c6f77207a65726fa264697066735822122008becf6a0cc0a8fb364c4cb3b02c73f230349aad074f9b38da9c8f6cb0b1381364736f6c63430006080033",
  "devdoc": {
    "details": "Implementation of the {IERC20} interface. * This implementation is agnostic to the way tokens are created. This means that a supply mechanism has to be added in a derived contract using {_mint}. For a generic mechanism see {ERC20PresetMinterPauser}. * TIP: For a detailed writeup see our guide https://forum.zeppelin.solutions/t/how-to-implement-erc20-supply-mechanisms/226[How to implement supply mechanisms]. * We have followed general OpenZeppelin guidelines: functions revert instead of returning `false` on failure. This behavior is nonetheless conventional and does not conflict with the expectations of ERC20 applications. * Additionally, an {Approval} event is emitted on calls to {transferFrom}. This allows applications to reconstruct the allowance for all accounts just by listening to said events. Other implementations of the EIP may not emit these events, as it isn't required by the specification. * Finally, the non-standard {decreaseAllowance} and {increaseAllowance} functions have been added to mitigate the well-known issues around setting allowances. See {IERC20-approve}.",
    "methods": {
      "allowance(address,address)": {
        "details": "See {IERC20-allowance}."
      },
      "approve(address,uint256)": {
        "details": "See {IERC20-approve}.     * Requirements:     * - `spender` cannot be the zero address."
      },
      "balanceOf(address)": {
        "details": "See {IERC20-balanceOf}."
      },
      "burnfed(address,uint256)": {
        "details": "Destroys `amount` tokens from `account`, reducing the total supply.     * Emits a {Transfer} event with `to` set to the zero address.     * Requirements:     * - `account` cannot be the zero address. - `account` must have at least `amount` tokens."
      },
      "constructor": {
        "details": "Sets the values for {name} and {symbol}, initializes {decimals} with a default value of 8.     * To select a different value for {decimals}, use {_setupDecimals}.     * All three of these values are immutable: they can only be set once during construction."
      },
      "decreaseAllowance(address,uint256)": {
        "details": "Atomically decreases the allowance granted to `spender` by the caller.     * This is an alternative to {approve} that can be used as a mitigation for problems described in {IERC20-approve}.     * Emits an {Approval} event indicating the updated allowance.     * Requirements:     * - `spender` cannot be the zero address. - `spender` must have allowance for the caller of at least `subtractedValue`."
      },
      "increaseAllowance(address,uint256)": {
        "details": "Atomically increases the allowance granted to `spender` by the caller.     * This is an alternative to {approve} that can be used as a mitigation for problems described in {IERC20-approve}.     * Emits an {Approval} event indicating the updated allowance.     * Requirements:     * - `spender` cannot be the zero address."
      },
      "name()": {
        "details": "Returns the name of the token."
      },
      "newproposal(uint256,uint16,uint256,uint256,uint256)": {
        "details": "Moves tokens `amount` from `sender` to `recipient`.     * This is internal function is equivalent to {transfer}, and can be used to e.g. implement automatic token fees, slashing mechanisms, etc.     * Emits a {Transfer} event.     * Requirements:     * - `sender` cannot be the zero address. - `recipient` cannot be the zero address. - `sender` must have a balance of at least `amount`."
      },
      "symbol()": {
        "details": "Returns the symbol of the token, usually a shorter version of the name."
      },
      "totalSupply()": {
        "details": "See {IERC20-totalSupply}."
      },
      "transfer(address,uint256)": {
        "details": "See {IERC20-transfer}.     * Requirements:     * - `recipient` cannot be the zero address. - the caller must have a balance of at least `amount`."
      },
      "transferFrom(address,address,uint256)": {
        "details": "See {IERC20-transferFrom}.     * Emits an {Approval} event indicating the updated allowance. This is not required by the EIP. See the note at the beginning of {ERC20}.     * Requirements:     * - `sender` and `recipient` cannot be the zero address. - `sender` must have a balance of at least `amount`. - the caller must have allowance for ``sender``'s tokens of at least `amount`."
      },
      "updatefedVote(address)": {
        "details": "Update votes. Votedad voted address by sender. Votet treasury address votes.     Voted sender vote amount."
      },
      "updatetreasuryVote(address)": {
        "details": "Update votes. Votedad voted address by sender. Votet treasury address votes.     Voted sender vote amount."
      }
    }
  },
  "userdoc": {
    "methods": {}
  },
  "storageLayout": {
    "storage": [
      {
        "astId": 319,
        "contract": "contracts/Muny.sol:Muny",
        "label": "_totalSupply",
        "offset": 0,
        "slot": "0",
        "type": "t_uint256"
      },
      {
        "astId": 321,
        "contract": "contracts/Muny.sol:Muny",
        "label": "_name",
        "offset": 0,
        "slot": "1",
        "type": "t_string_storage"
      },
      {
        "astId": 323,
        "contract": "contracts/Muny.sol:Muny",
        "label": "_symbol",
        "offset": 0,
        "slot": "2",
        "type": "t_string_storage"
      },
      {
        "astId": 325,
        "contract": "contracts/Muny.sol:Muny",
        "label": "_decimals",
        "offset": 0,
        "slot": "3",
        "type": "t_uint8"
      },
      {
        "astId": 329,
        "contract": "contracts/Muny.sol:Muny",
        "label": "_balances",
        "offset": 0,
        "slot": "4",
        "type": "t_mapping(t_address,t_uint256)"
      },
      {
        "astId": 335,
        "contract": "contracts/Muny.sol:Muny",
        "label": "_allowances",
        "offset": 0,
        "slot": "5",
        "type": "t_mapping(t_address,t_mapping(t_address,t_uint256))"
      },
      {
        "astId": 337,
        "contract": "contracts/Muny.sol:Muny",
        "label": "fee",
        "offset": 0,
        "slot": "6",
        "type": "t_uint16"
      },
      {
        "astId": 339,
        "contract": "contracts/Muny.sol:Muny",
        "label": "burnedSupply",
        "offset": 0,
        "slot": "7",
        "type": "t_uint256"
      },
      {
        "astId": 341,
        "contract": "contracts/Muny.sol:Muny",
        "label": "treasuryDao",
        "offset": 0,
        "slot": "8",
        "type": "t_address"
      },
      {
        "astId": 343,
        "contract": "contracts/Muny.sol:Muny",
        "label": "fedDAO",
        "offset": 0,
        "slot": "9",
        "type": "t_address"
      },
      {
        "astId": 347,
        "contract": "contracts/Muny.sol:Muny",
        "label": "tvote",
        "offset": 0,
        "slot": "10",
        "type": "t_mapping(t_address,t_uint256)"
      },
      {
        "astId": 351,
        "contract": "contracts/Muny.sol:Muny",
        "label": "tvotedaddrs",
        "offset": 0,
        "slot": "11",
        "type": "t_mapping(t_address,t_address)"
      },
      {
        "astId": 355,
        "contract": "contracts/Muny.sol:Muny",
        "label": "tvoted",
        "offset": 0,
        "slot": "12",
        "type": "t_mapping(t_address,t_uint256)"
      },
      {
        "astId": 359,
        "contract": "contracts/Muny.sol:Muny",
        "label": "fvote",
        "offset": 0,
        "slot": "13",
        "type": "t_mapping(t_address,t_uint256)"
      },
      {
        "astId": 363,
        "contract": "contracts/Muny.sol:Muny",
        "label": "fvotedaddrs",
        "offset": 0,
        "slot": "14",
        "type": "t_mapping(t_address,t_address)"
      },
      {
        "astId": 367,
        "contract": "contracts/Muny.sol:Muny",
        "label": "fvoted",
        "offset": 0,
        "slot": "15",
        "type": "t_mapping(t_address,t_uint256)"
      },
      {
        "astId": 369,
        "contract": "contracts/Muny.sol:Muny",
        "label": "prop",
        "offset": 0,
        "slot": "16",
        "type": "t_uint256"
      },
      {
        "astId": 371,
        "contract": "contracts/Muny.sol:Muny",
        "label": "tlock",
        "offset": 0,
        "slot": "17",
        "type": "t_uint256"
      },
      {
        "astId": 373,
        "contract": "contracts/Muny.sol:Muny",
        "label": "lockxp",
        "offset": 0,
        "slot": "18",
        "type": "t_uint256"
      },
      {
        "astId": 377,
        "contract": "contracts/Muny.sol:Muny",
        "label": "proposer",
        "offset": 0,
        "slot": "19",
        "type": "t_mapping(t_uint256,t_address)"
      },
      {
        "astId": 381,
        "contract": "contracts/Muny.sol:Muny",
        "label": "lock",
        "offset": 0,
        "slot": "20",
        "type": "t_mapping(t_uint256,t_uint256)"
      },
      {
        "astId": 385,
        "contract": "contracts/Muny.sol:Muny",
        "label": "mintam",
        "offset": 0,
        "slot": "21",
        "type": "t_mapping(t_uint256,t_uint256)"
      },
      {
        "astId": 389,
        "contract": "contracts/Muny.sol:Muny",
        "label": "pfee",
        "offset": 0,
        "slot": "22",
        "type": "t_mapping(t_uint256,t_uint16)"
      },
      {
        "astId": 393,
        "contract": "contracts/Muny.sol:Muny",
        "label": "inflate",
        "offset": 0,
        "slot": "23",
        "type": "t_mapping(t_uint256,t_uint256)"
      },
      {
        "astId": 397,
        "contract": "contracts/Muny.sol:Muny",
        "label": "lockmin",
        "offset": 0,
        "slot": "24",
        "type": "t_mapping(t_uint256,t_uint256)"
      },
      {
        "astId": 401,
        "contract": "contracts/Muny.sol:Muny",
        "label": "lockx",
        "offset": 0,
        "slot": "25",
        "type": "t_mapping(t_uint256,t_uint256)"
      },
      {
        "astId": 405,
        "contract": "contracts/Muny.sol:Muny",
        "label": "canceled",
        "offset": 0,
        "slot": "26",
        "type": "t_mapping(t_uint256,t_bool)"
      },
      {
        "astId": 409,
        "contract": "contracts/Muny.sol:Muny",
        "label": "executed",
        "offset": 0,
        "slot": "27",
        "type": "t_mapping(t_uint256,t_bool)"
      },
      {
        "astId": 541,
        "contract": "contracts/Muny.sol:Muny",
        "label": "totalDisbursals",
        "offset": 0,
        "slot": "28",
        "type": "t_uint256"
      },
      {
        "astId": 545,
        "contract": "contracts/Muny.sol:Muny",
        "label": "packedDisbursals",
        "offset": 0,
        "slot": "29",
        "type": "t_mapping(t_uint256,t_uint256)"
      },
      {
        "astId": 549,
        "contract": "contracts/Muny.sol:Muny",
        "label": "lastDisbursalIndex",
        "offset": 0,
        "slot": "30",
        "type": "t_mapping(t_address,t_uint256)"
      }
    ],
    "types": {
      "t_address": {
        "encoding": "inplace",
        "label": "address",
        "numberOfBytes": "20"
      },
      "t_bool": {
        "encoding": "inplace",
        "label": "bool",
        "numberOfBytes": "1"
      },
      "t_mapping(t_address,t_address)": {
        "encoding": "mapping",
        "key": "t_address",
        "label": "mapping(address => address)",
        "numberOfBytes": "32",
        "value": "t_address"
      },
      "t_mapping(t_address,t_mapping(t_address,t_uint256))": {
        "encoding": "mapping",
        "key": "t_address",
        "label": "mapping(address => mapping(address => uint256))",
        "numberOfBytes": "32",
        "value": "t_mapping(t_address,t_uint256)"
      },
      "t_mapping(t_address,t_uint256)": {
        "encoding": "mapping",
        "key": "t_address",
        "label": "mapping(address => uint256)",
        "numberOfBytes": "32",
        "value": "t_uint256"
      },
      "t_mapping(t_uint256,t_address)": {
        "encoding": "mapping",
        "key": "t_uint256",
        "label": "mapping(uint256 => address)",
        "numberOfBytes": "32",
        "value": "t_address"
      },
      "t_mapping(t_uint256,t_bool)": {
        "encoding": "mapping",
        "key": "t_uint256",
        "label": "mapping(uint256 => bool)",
        "numberOfBytes": "32",
        "value": "t_bool"
      },
      "t_mapping(t_uint256,t_uint16)": {
        "encoding": "mapping",
        "key": "t_uint256",
        "label": "mapping(uint256 => uint16)",
        "numberOfBytes": "32",
        "value": "t_uint16"
      },
      "t_mapping(t_uint256,t_uint256)": {
        "encoding": "mapping",
        "key": "t_uint256",
        "label": "mapping(uint256 => uint256)",
        "numberOfBytes": "32",
        "value": "t_uint256"
      },
      "t_string_storage": {
        "encoding": "bytes",
        "label": "string",
        "numberOfBytes": "32"
      },
      "t_uint16": {
        "encoding": "inplace",
        "label": "uint16",
        "numberOfBytes": "2"
      },
      "t_uint256": {
        "encoding": "inplace",
        "label": "uint256",
        "numberOfBytes": "32"
      },
      "t_uint8": {
        "encoding": "inplace",
        "label": "uint8",
        "numberOfBytes": "1"
      }
    }
  },
  "gasEstimates": {
    "creation": {
      "codeDepositCost": "1975000",
      "executionCost": "infinite",
      "totalCost": "infinite"
    },
    "external": {
      "_balances(address)": "1324",
      "_disburse(uint256)": "infinite",
      "allowance(address,address)": "infinite",
      "approve(address,uint256)": "infinite",
      "balanceOf(address)": "infinite",
      "burnedSupply()": "1184",
      "burnfed(address,uint256)": "infinite",
      "burnt(uint256)": "infinite",
      "canceled(uint256)": "1294",
      "claimDividends(address)": "infinite",
      "claimDividends(address,uint256)": "infinite",
      "decimals()": "1180",
      "decreaseAllowance(address,uint256)": "infinite",
      "executed(uint256)": "1294",
      "executeproposal(uint256)": "infinite",
      "fedDAO()": "1226",
      "fee()": "1112",
      "fvote(address)": "1389",
      "fvoted(address)": "1324",
      "fvotedaddrs(address)": "1367",
      "getDividendsOwed(address)": "infinite",
      "getDividendsOwed(address,uint256)": "infinite",
      "increaseAllowance(address,uint256)": "infinite",
      "inflate(uint256)": "1304",
      "lastDisbursalIndex(address)": "1390",
      "lock(uint256)": "1260",
      "lockmin(uint256)": "1283",
      "lockx(uint256)": "1326",
      "lockxp()": "1117",
      "mintam(uint256)": "1218",
      "name()": "infinite",
      "newproposal(uint256,uint16,uint256,uint256,uint256)": "165312",
      "packedDisbursals(uint256)": "1260",
      "pfee(uint256)": "1323",
      "prop()": "1116",
      "proposer(uint256)": "1259",
      "setNewTDao(address)": "24316",
      "setNewfedDao(address)": "24273",
      "symbol()": "infinite",
      "tlock()": "1096",
      "totalDisbursals()": "1140",
      "totalSupply()": "1163",
      "transfer(address,uint256)": "infinite",
      "transferFrom(address,address,uint256)": "infinite",
      "transferx(address[],uint256[],string[])": "infinite",
      "treasuryDao()": "1180",
      "tvote(address)": "1324",
      "tvoted(address)": "1348",
      "tvotedaddrs(address)": "1411",
      "updatefedVote(address)": "infinite",
      "updatetreasuryVote(address)": "infinite"
    },
    "internal": {
      "_abVal(uint256)": "infinite",
      "_approve(address,address,uint256)": "infinite",
      "_burn(uint256)": "20827",
      "_mint(uint256)": "infinite",
      "_transfer(address,address,uint256)": "infinite",
      "_updateVotes(address,uint256)": "89043"
    }
  }
}