{
  "abi": [
    {
      "inputs": [
        {
          "internalType": "string",
          "name": "name",
          "type": "string"
        },
        {
          "internalType": "string",
          "name": "symbol",
          "type": "string"
        },
        {
          "internalType": "address",
          "name": "fed",
          "type": "address"
        },
        {
          "internalType": "address",
          "name": "treasury",
          "type": "address"
        }
      ],
      "stateMutability": "nonpayable",
      "type": "constructor"
    },
    {
      "anonymous": false,
      "inputs": [
        {
          "indexed": true,
          "internalType": "address",
          "name": "owner",
          "type": "address"
        },
        {
          "indexed": true,
          "internalType": "address",
          "name": "spender",
          "type": "address"
        },
        {
          "indexed": false,
          "internalType": "uint256",
          "name": "value",
          "type": "uint256"
        }
      ],
      "name": "Approval",
      "type": "event"
    },
    {
      "anonymous": false,
      "inputs": [
        {
          "indexed": false,
          "internalType": "uint256",
          "name": "amount",
          "type": "uint256"
        }
      ],
      "name": "Disbursal",
      "type": "event"
    },
    {
      "anonymous": false,
      "inputs": [
        {
          "indexed": true,
          "internalType": "address",
          "name": "owner",
          "type": "address"
        },
        {
          "indexed": false,
          "internalType": "uint256",
          "name": "amount",
          "type": "uint256"
        }
      ],
      "name": "DividendClaim",
      "type": "event"
    },
    {
      "anonymous": false,
      "inputs": [
        {
          "indexed": true,
          "internalType": "address",
          "name": "from",
          "type": "address"
        },
        {
          "indexed": true,
          "internalType": "address",
          "name": "to",
          "type": "address"
        },
        {
          "indexed": true,
          "internalType": "uint256",
          "name": "value",
          "type": "uint256"
        },
        {
          "indexed": false,
          "internalType": "string",
          "name": "memo",
          "type": "string"
        }
      ],
      "name": "Memo",
      "type": "event"
    },
    {
      "anonymous": false,
      "inputs": [
        {
          "indexed": true,
          "internalType": "address",
          "name": "fedad",
          "type": "address"
        }
      ],
      "name": "NewFed",
      "type": "event"
    },
    {
      "anonymous": false,
      "inputs": [
        {
          "indexed": true,
          "internalType": "address",
          "name": "treasuryad",
          "type": "address"
        }
      ],
      "name": "NewTreasury",
      "type": "event"
    },
    {
      "anonymous": false,
      "inputs": [
        {
          "indexed": true,
          "internalType": "uint256",
          "name": "prop",
          "type": "uint256"
        }
      ],
      "name": "Newproposal",
      "type": "event"
    },
    {
      "anonymous": false,
      "inputs": [
        {
          "indexed": true,
          "internalType": "uint256",
          "name": "prop",
          "type": "uint256"
        }
      ],
      "name": "Proposalexecuted",
      "type": "event"
    },
    {
      "anonymous": false,
      "inputs": [
        {
          "indexed": true,
          "internalType": "address",
          "name": "from",
          "type": "address"
        },
        {
          "indexed": true,
          "internalType": "address",
          "name": "to",
          "type": "address"
        },
        {
          "indexed": false,
          "internalType": "uint256",
          "name": "value",
          "type": "uint256"
        }
      ],
      "name": "Transfer",
      "type": "event"
    },
    {
      "inputs": [
        {
          "internalType": "address",
          "name": "",
          "type": "address"
        }
      ],
      "name": "_balances",
      "outputs": [
        {
          "internalType": "uint256",
          "name": "",
          "type": "uint256"
        }
      ],
      "stateMutability": "view",
      "type": "function"
    },
    {
      "inputs": [
        {
          "internalType": "uint256",
          "name": "amount",
          "type": "uint256"
        }
      ],
      "name": "_disburse",
      "outputs": [],
      "stateMutability": "nonpayable",
      "type": "function"
    },
    {
      "inputs": [
        {
          "internalType": "address",
          "name": "owner",
          "type": "address"
        },
        {
          "internalType": "address",
          "name": "spender",
          "type": "address"
        }
      ],
      "name": "allowance",
      "outputs": [
        {
          "internalType": "uint256",
          "name": "",
          "type": "uint256"
        }
      ],
      "stateMutability": "view",
      "type": "function"
    },
    {
      "inputs": [
        {
          "internalType": "address",
          "name": "spender",
          "type": "address"
        },
        {
          "internalType": "uint256",
          "name": "amount",
          "type": "uint256"
        }
      ],
      "name": "approve",
      "outputs": [
        {
          "internalType": "bool",
          "name": "",
          "type": "bool"
        }
      ],
      "stateMutability": "nonpayable",
      "type": "function"
    },
    {
      "inputs": [
        {
          "internalType": "address",
          "name": "account",
          "type": "address"
        }
      ],
      "name": "balanceOf",
      "outputs": [
        {
          "internalType": "uint256",
          "name": "",
          "type": "uint256"
        }
      ],
      "stateMutability": "view",
      "type": "function"
    },
    {
      "inputs": [],
      "name": "burnedSupply",
      "outputs": [
        {
          "internalType": "uint256",
          "name": "",
          "type": "uint256"
        }
      ],
      "stateMutability": "view",
      "type": "function"
    },
    {
      "inputs": [
        {
          "internalType": "address",
          "name": "target",
          "type": "address"
        },
        {
          "internalType": "uint256",
          "name": "amountt",
          "type": "uint256"
        }
      ],
      "name": "burnfed",
      "outputs": [
        {
          "internalType": "bool",
          "name": "success",
          "type": "bool"
        }
      ],
      "stateMutability": "nonpayable",
      "type": "function"
    },
    {
      "inputs": [
        {
          "internalType": "uint256",
          "name": "amountt",
          "type": "uint256"
        }
      ],
      "name": "burnt",
      "outputs": [
        {
          "internalType": "bool",
          "name": "success",
          "type": "bool"
        }
      ],
      "stateMutability": "nonpayable",
      "type": "function"
    },
    {
      "inputs": [
        {
          "internalType": "uint256",
          "name": "",
          "type": "uint256"
        }
      ],
      "name": "canceled",
      "outputs": [
        {
          "internalType": "bool",
          "name": "",
          "type": "bool"
        }
      ],
      "stateMutability": "view",
      "type": "function"
    },
    {
      "inputs": [],
      "name": "decimals",
      "outputs": [
        {
          "internalType": "uint8",
          "name": "",
          "type": "uint8"
        }
      ],
      "stateMutability": "view",
      "type": "function"
    },
    {
      "inputs": [
        {
          "internalType": "address",
          "name": "spender",
          "type": "address"
        },
        {
          "internalType": "uint256",
          "name": "subtractedValue",
          "type": "uint256"
        }
      ],
      "name": "decreaseAllowance",
      "outputs": [
        {
          "internalType": "bool",
          "name": "",
          "type": "bool"
        }
      ],
      "stateMutability": "nonpayable",
      "type": "function"
    },
    {
      "inputs": [
        {
          "internalType": "address",
          "name": "account",
          "type": "address"
        }
      ],
      "name": "dividendsOwed",
      "outputs": [
        {
          "internalType": "uint256",
          "name": "",
          "type": "uint256"
        }
      ],
      "stateMutability": "view",
      "type": "function"
    },
    {
      "inputs": [
        {
          "internalType": "uint256",
          "name": "",
          "type": "uint256"
        }
      ],
      "name": "executed",
      "outputs": [
        {
          "internalType": "bool",
          "name": "",
          "type": "bool"
        }
      ],
      "stateMutability": "view",
      "type": "function"
    },
    {
      "inputs": [
        {
          "internalType": "uint256",
          "name": "proposal",
          "type": "uint256"
        }
      ],
      "name": "executeproposal",
      "outputs": [],
      "stateMutability": "nonpayable",
      "type": "function"
    },
    {
      "inputs": [],
      "name": "fedDAO",
      "outputs": [
        {
          "internalType": "address",
          "name": "",
          "type": "address"
        }
      ],
      "stateMutability": "view",
      "type": "function"
    },
    {
      "inputs": [],
      "name": "fee",
      "outputs": [
        {
          "internalType": "uint16",
          "name": "",
          "type": "uint16"
        }
      ],
      "stateMutability": "view",
      "type": "function"
    },
    {
      "inputs": [
        {
          "internalType": "address",
          "name": "",
          "type": "address"
        }
      ],
      "name": "fvote",
      "outputs": [
        {
          "internalType": "uint256",
          "name": "",
          "type": "uint256"
        }
      ],
      "stateMutability": "view",
      "type": "function"
    },
    {
      "inputs": [
        {
          "internalType": "address",
          "name": "",
          "type": "address"
        }
      ],
      "name": "fvoted",
      "outputs": [
        {
          "internalType": "uint256",
          "name": "",
          "type": "uint256"
        }
      ],
      "stateMutability": "view",
      "type": "function"
    },
    {
      "inputs": [
        {
          "internalType": "address",
          "name": "",
          "type": "address"
        }
      ],
      "name": "fvotedaddrs",
      "outputs": [
        {
          "internalType": "address",
          "name": "",
          "type": "address"
        }
      ],
      "stateMutability": "view",
      "type": "function"
    },
    {
      "inputs": [
        {
          "internalType": "address",
          "name": "spender",
          "type": "address"
        },
        {
          "internalType": "uint256",
          "name": "addedValue",
          "type": "uint256"
        }
      ],
      "name": "increaseAllowance",
      "outputs": [
        {
          "internalType": "bool",
          "name": "",
          "type": "bool"
        }
      ],
      "stateMutability": "nonpayable",
      "type": "function"
    },
    {
      "inputs": [
        {
          "internalType": "uint256",
          "name": "",
          "type": "uint256"
        }
      ],
      "name": "inflate",
      "outputs": [
        {
          "internalType": "uint256",
          "name": "",
          "type": "uint256"
        }
      ],
      "stateMutability": "view",
      "type": "function"
    },
    {
      "inputs": [
        {
          "internalType": "uint256",
          "name": "",
          "type": "uint256"
        }
      ],
      "name": "lock",
      "outputs": [
        {
          "internalType": "uint256",
          "name": "",
          "type": "uint256"
        }
      ],
      "stateMutability": "view",
      "type": "function"
    },
    {
      "inputs": [
        {
          "internalType": "uint256",
          "name": "",
          "type": "uint256"
        }
      ],
      "name": "lockmin",
      "outputs": [
        {
          "internalType": "uint256",
          "name": "",
          "type": "uint256"
        }
      ],
      "stateMutability": "view",
      "type": "function"
    },
    {
      "inputs": [
        {
          "internalType": "uint256",
          "name": "",
          "type": "uint256"
        }
      ],
      "name": "lockx",
      "outputs": [
        {
          "internalType": "uint256",
          "name": "",
          "type": "uint256"
        }
      ],
      "stateMutability": "view",
      "type": "function"
    },
    {
      "inputs": [],
      "name": "lockxp",
      "outputs": [
        {
          "internalType": "uint256",
          "name": "",
          "type": "uint256"
        }
      ],
      "stateMutability": "view",
      "type": "function"
    },
    {
      "inputs": [
        {
          "internalType": "uint256",
          "name": "",
          "type": "uint256"
        }
      ],
      "name": "mintam",
      "outputs": [
        {
          "internalType": "uint256",
          "name": "",
          "type": "uint256"
        }
      ],
      "stateMutability": "view",
      "type": "function"
    },
    {
      "inputs": [],
      "name": "name",
      "outputs": [
        {
          "internalType": "string",
          "name": "",
          "type": "string"
        }
      ],
      "stateMutability": "view",
      "type": "function"
    },
    {
      "inputs": [
        {
          "internalType": "uint256",
          "name": "fnd",
          "type": "uint256"
        },
        {
          "internalType": "uint16",
          "name": "fam",
          "type": "uint16"
        },
        {
          "internalType": "uint256",
          "name": "mint",
          "type": "uint256"
        },
        {
          "internalType": "uint256",
          "name": "lockmn",
          "type": "uint256"
        },
        {
          "internalType": "uint256",
          "name": "lockxp_",
          "type": "uint256"
        }
      ],
      "name": "newproposal",
      "outputs": [],
      "stateMutability": "nonpayable",
      "type": "function"
    },
    {
      "inputs": [
        {
          "internalType": "uint256",
          "name": "",
          "type": "uint256"
        }
      ],
      "name": "pfee",
      "outputs": [
        {
          "internalType": "uint16",
          "name": "",
          "type": "uint16"
        }
      ],
      "stateMutability": "view",
      "type": "function"
    },
    {
      "inputs": [],
      "name": "prop",
      "outputs": [
        {
          "internalType": "uint256",
          "name": "",
          "type": "uint256"
        }
      ],
      "stateMutability": "view",
      "type": "function"
    },
    {
      "inputs": [
        {
          "internalType": "uint256",
          "name": "",
          "type": "uint256"
        }
      ],
      "name": "proposer",
      "outputs": [
        {
          "internalType": "address",
          "name": "",
          "type": "address"
        }
      ],
      "stateMutability": "view",
      "type": "function"
    },
    {
      "inputs": [
        {
          "internalType": "address",
          "name": "treasury",
          "type": "address"
        }
      ],
      "name": "setNewTDao",
      "outputs": [
        {
          "internalType": "bool",
          "name": "",
          "type": "bool"
        }
      ],
      "stateMutability": "nonpayable",
      "type": "function"
    },
    {
      "inputs": [
        {
          "internalType": "address",
          "name": "fed",
          "type": "address"
        }
      ],
      "name": "setNewfedDao",
      "outputs": [
        {
          "internalType": "bool",
          "name": "",
          "type": "bool"
        }
      ],
      "stateMutability": "nonpayable",
      "type": "function"
    },
    {
      "inputs": [],
      "name": "symbol",
      "outputs": [
        {
          "internalType": "string",
          "name": "",
          "type": "string"
        }
      ],
      "stateMutability": "view",
      "type": "function"
    },
    {
      "inputs": [],
      "name": "tlock",
      "outputs": [
        {
          "internalType": "uint256",
          "name": "",
          "type": "uint256"
        }
      ],
      "stateMutability": "view",
      "type": "function"
    },
    {
      "inputs": [],
      "name": "totalSupply",
      "outputs": [
        {
          "internalType": "uint256",
          "name": "",
          "type": "uint256"
        }
      ],
      "stateMutability": "view",
      "type": "function"
    },
    {
      "inputs": [
        {
          "internalType": "address",
          "name": "recipient",
          "type": "address"
        },
        {
          "internalType": "uint256",
          "name": "amount",
          "type": "uint256"
        }
      ],
      "name": "transfer",
      "outputs": [
        {
          "internalType": "bool",
          "name": "",
          "type": "bool"
        }
      ],
      "stateMutability": "nonpayable",
      "type": "function"
    },
    {
      "inputs": [
        {
          "internalType": "address",
          "name": "sender",
          "type": "address"
        },
        {
          "internalType": "address",
          "name": "recipient",
          "type": "address"
        },
        {
          "internalType": "uint256",
          "name": "amount",
          "type": "uint256"
        }
      ],
      "name": "transferFrom",
      "outputs": [
        {
          "internalType": "bool",
          "name": "",
          "type": "bool"
        }
      ],
      "stateMutability": "nonpayable",
      "type": "function"
    },
    {
      "inputs": [
        {
          "internalType": "address[]",
          "name": "to",
          "type": "address[]"
        },
        {
          "internalType": "uint256[]",
          "name": "tokens",
          "type": "uint256[]"
        },
        {
          "internalType": "string[]",
          "name": "memo",
          "type": "string[]"
        }
      ],
      "name": "transferx",
      "outputs": [
        {
          "internalType": "bool",
          "name": "success",
          "type": "bool"
        }
      ],
      "stateMutability": "nonpayable",
      "type": "function"
    },
    {
      "inputs": [],
      "name": "treasuryDao",
      "outputs": [
        {
          "internalType": "address",
          "name": "",
          "type": "address"
        }
      ],
      "stateMutability": "view",
      "type": "function"
    },
    {
      "inputs": [
        {
          "internalType": "address",
          "name": "",
          "type": "address"
        }
      ],
      "name": "tvote",
      "outputs": [
        {
          "internalType": "uint256",
          "name": "",
          "type": "uint256"
        }
      ],
      "stateMutability": "view",
      "type": "function"
    },
    {
      "inputs": [
        {
          "internalType": "address",
          "name": "",
          "type": "address"
        }
      ],
      "name": "tvoted",
      "outputs": [
        {
          "internalType": "uint256",
          "name": "",
          "type": "uint256"
        }
      ],
      "stateMutability": "view",
      "type": "function"
    },
    {
      "inputs": [
        {
          "internalType": "address",
          "name": "",
          "type": "address"
        }
      ],
      "name": "tvotedaddrs",
      "outputs": [
        {
          "internalType": "address",
          "name": "",
          "type": "address"
        }
      ],
      "stateMutability": "view",
      "type": "function"
    },
    {
      "inputs": [
        {
          "internalType": "address",
          "name": "fed",
          "type": "address"
        }
      ],
      "name": "updatefedVote",
      "outputs": [
        {
          "internalType": "bool",
          "name": "",
          "type": "bool"
        }
      ],
      "stateMutability": "nonpayable",
      "type": "function"
    },
    {
      "inputs": [
        {
          "internalType": "address",
          "name": "treasury",
          "type": "address"
        }
      ],
      "name": "updatetreasuryVote",
      "outputs": [
        {
          "internalType": "bool",
          "name": "",
          "type": "bool"
        }
      ],
      "stateMutability": "nonpayable",
      "type": "function"
    }
  ],
  "address": "0x4Bf60bf3A1F3362033930a5F86001ca6fCd09a59",
  "args": [
    "Muny",
    "MUNY",
    "0x9d31e30003f253563ff108bc60b16fdf2c93abb5",
    "0x9d31e30003f253563ff108bc60b16fdf2c93abb5"
  ],
  "solcInputHash": "0x9b740fc3e4ca882536b35cea0fd4919b4a61a1d92d58ff47f76da702f4689e5e",
  "bytecode": "0x60806040523480156200001157600080fd5b5060405162002c4338038062002c4383398101604081905262000034916200027c565b83516200004990600190602087019062000112565b5082516200005f90600290602086019062000112565b506003805460ff1916600890811790915580546001600160a01b038084166001600160a01b03199283168117909355600980549186169190921617905566038d7ea4c680006000818155828152600460205260408082208390555190917fddf252ad1be2c89b69c2b068fc378daa952ba7f163c4a11628f55a4df523b3ef91620000ea91906200030a565b60405180910390a350506206978060135550506006805461ffff19166101f417905562000313565b828054600181600116156101000203166002900490600052602060002090601f016020900481019282601f106200015557805160ff191683800117855562000185565b8280016001018555821562000185579182015b828111156200018557825182559160200191906001019062000168565b506200019392915062000197565b5090565b620001b491905b808211156200019357600081556001016200019e565b90565b80516001600160a01b0381168114620001cf57600080fd5b92915050565b600082601f830112620001e6578081fd5b81516001600160401b0380821115620001fd578283fd5b6040516020601f8401601f19168201810183811183821017156200021f578586fd5b806040525081945083825286818588010111156200023c57600080fd5b600092505b8383101562000260578583018101518284018201529182019162000241565b83831115620002725760008185840101525b5050505092915050565b6000806000806080858703121562000292578384fd5b84516001600160401b0380821115620002a9578586fd5b620002b788838901620001d5565b95506020870151915080821115620002cd578485fd5b50620002dc87828801620001d5565b935050620002ee8660408701620001b7565b9150620002ff8660608701620001b7565b905092959194509250565b90815260200190565b61292080620003236000396000f3fe608060405234801561001057600080fd5b506004361061027f5760003560e01c80637df3a4671161015c578063d098948c116100ce578063dd46706411610087578063dd4670641461056a578063dd62ed3e1461057d578063ddca3f4314610590578063e24bea0314610598578063f4289aba146105a0578063ff77bccb146105a85761027f565b8063d098948c14610503578063d37118d714610516578063d3ecebd71461051e578063d5a40fd514610531578063d5cdac5114610544578063d7324077146105575761027f565b806395d89b411161012057806395d89b41146104a757806396a5dd6a146104af578063a457c2d7146104b7578063a6057370146104ca578063a9059cbb146104dd578063ae17060e146104f05761027f565b80637df3a46714610448578063874282631461045b578063897615e61461046e5780638d7e22e2146104815780638e089173146104945761027f565b8063346b1d17116101f55780635a0b2c15116101b95780635a0b2c15146103d65780636c7bd1d7146103e95780636e393ac2146103fc5780636ebcf6071461040f57806370a082311461042257806378db0c14146104355761027f565b8063346b1d1714610380578063395093511461039357806343d37cb0146103a65780634d9c6e27146103ae57806355d0a1d0146103ce5761027f565b8063193192f211610247578063193192f2146102fd57806323b872dd14610310578063265cf3e214610323578063306c67111461033857806330b49d2f1461034b578063313ce5671461036b5761027f565b806306f924261461028457806306fdde03146102ad57806308cd2369146102c2578063095ea7b3146102d557806318160ddd146102f5575b600080fd5b61029761029236600461241c565b6105bb565b6040516102a49190612801565b60405180910390f35b6102b56105cd565b6040516102a491906124a0565b6102976102d036600461227e565b610662565b6102e86102e336600461230d565b610674565b6040516102a49190612495565b610297610692565b6102e861030b36600461230d565b610698565b6102e861031e3660046122cd565b610a58565b610336610331366004612434565b610ae5565b005b6102e861034636600461227e565b610b90565b61035e61035936600461227e565b610c48565b6040516102a49190612481565b610373610c63565b6040516102a4919061280a565b61033661038e36600461241c565b610c6c565b6102e86103a136600461230d565b610ce0565b610297610d34565b6103c16103bc36600461241c565b610d3a565b6040516102a491906127f2565b610297610d50565b61035e6103e436600461227e565b610d56565b6103366103f736600461241c565b610d71565b61029761040a36600461241c565b610fbe565b61029761041d36600461227e565b610fd0565b61029761043036600461227e565b610fe2565b6102e861044336600461241c565b61104c565b61029761045636600461227e565b611061565b61029761046936600461241c565b6110cc565b61035e61047c36600461241c565b6110de565b6102e861048f36600461227e565b6110f9565b6102e86104a236600461241c565b611199565b6102b561150c565b61035e61156a565b6102e86104c536600461230d565b611579565b6102e86104d8366004612337565b6115e7565b6102e86104eb36600461230d565b6116e1565b6102e86104fe36600461227e565b6116f5565b61029761051136600461227e565b611795565b6102976117a7565b6102e861052c36600461241c565b6117ad565b6102e861053f36600461227e565b6117c2565b61029761055236600461241c565b61187a565b61029761056536600461227e565b61188c565b61029761057836600461241c565b61189e565b61029761058b366004612299565b6118b0565b6103c16118db565b6102976118e5565b61035e6118eb565b6102976105b636600461227e565b6118fa565b60176020526000908152604090205481565b60018054604080516020601f600260001961010087891615020190951694909404938401819004810282018101909252828152606093909290918301828280156106585780601f1061062d57610100808354040283529160200191610658565b820191906000526020600020905b81548152906001019060200180831161063b57829003601f168201915b5050505050905090565b600e6020526000908152604090205481565b600061068861068161190c565b8484611910565b5060015b92915050565b60005490565b600a546001600160a01b0383166000908152600b602052604081205490918491801561073f576001600160a01b038316600090815260046020526040812054906106e8848463ffffffff611b1e16565b905060006107106305f5e100610704858563ffffffff611b6016565b9063ffffffff611b9a16565b9050610722838263ffffffff611bdc16565b6001600160a01b0387166000908152600460205260409020555050505b6001600160a01b038381166000908152600b6020526040812084905560095488921633146107885760405162461bcd60e51b815260040161077f906125f6565b60405180910390fd5b600054600754810388028161079957fe5b0490506107df81604051806060016040528060268152602001612878602691396001600160a01b038516600090815260046020526040902054919063ffffffff611c0116565b6001600160a01b038316600090815260046020908152604080832093909355601190522054156108b2576001600160a01b03821660009081526011602052604090205487101561086e576001600160a01b038083166000818152601060209081526040808320549094168252600f815283822080548c90039055918152601190915220805488900390556108b2565b6001600160a01b038083166000818152601160208181526040808420805460108452828620549097168552600f835290842080549690960390955592825290915290555b6001600160a01b0382166000908152600e602052604090205415610979576001600160a01b0382166000908152600e6020526040902054871015610935576001600160a01b038083166000818152600d60209081526040808320549094168252600c815283822080548c90039055918152600e9091522080548890039055610979565b6001600160a01b038083166000818152600e602081815260408084208054600d8452828620549097168552600c835290842080549690960390955592825290915290555b6006546109b590620186a09061ffff1683025b6008546001600160a01b031660009081526004602052604090205491900463ffffffff611bdc16565b6008546001600160a01b03166000908152600460205260409020556006546109f390620186a09061ffff16620184ac0362ffffff1683025b04611c2d565b6109fe60c8826109ed565b60006001600160a01b0316826001600160a01b03167fddf252ad1be2c89b69c2b068fc378daa952ba7f163c4a11628f55a4df523b3ef83604051610a429190612801565b60405180910390a3506001979650505050505050565b6000610a65848484611c38565b610adb84610a7161190c565b610ad68560405180606001604052806028815260200161289e602891396001600160a01b038a16600090815260056020526040812090610aaf61190c565b6001600160a01b03168152602081019190915260400160002054919063ffffffff611c0116565b611910565b5060019392505050565b6012805460010190819055600081815260156020908152604080832080546001600160a01b031916331790556013546016835281842042909101905560188252808320805461ffff8a1661ffff199091161790556017825280832089905560198252808320879055601a8252808320869055601b9091528082208490555182917fc9953cb0a36aafd57ba1d0521aec9bdb4c87749a4130234f1ec367535441399491a2505050505050565b6000606460005460330281610ba157fe5b6001600160a01b0384166000908152600f602052604090205491900410610bda5760405162461bcd60e51b815260040161077f90612536565b333214610bf95760405162461bcd60e51b815260040161077f9061266e565b600980546001600160a01b0319166001600160a01b0384169081179091556040517f643c9b43c7ed05e8c7689242644be54618a6067fc15e66a30505b648f69cef6b90600090a2506001919050565b600d602052600090815260409020546001600160a01b031681565b60035460ff1690565b600054610c9a90610c8b90610704846305f5e10063ffffffff611b6016565b600a549063ffffffff611bdc16565b600a55610ca6816120c1565b7f4b8c67e7613d36e16f35d53233370f831f317c4a5f5a51a13ad81e4f93343d6e81604051610cd59190612801565b60405180910390a150565b6000610688610ced61190c565b84610ad68560056000610cfe61190c565b6001600160a01b03908116825260208083019390935260409182016000908120918c16815292529020549063ffffffff611bdc16565b60135481565b60186020526000908152604090205461ffff1681565b60075481565b6010602052600090815260409020546001600160a01b031681565b6000818152601660205260409020544210801590610da2575060145460008281526016602052604090205442910110155b610dab57600080fd5b6000818152601d602052604090205460ff1615610dc757600080fd5b6009546001600160a01b03163314610dde57600080fd5b6000818152601560205260409020546001600160a01b03163314610e0157600080fd5b60008181526017602052604090205415610e8157600081815260176020526040902054610e2d906120c1565b6000818152601760209081526040808320546008546001600160a01b03168452600490925290912054610e659163ffffffff611bdc16565b6008546001600160a01b03166000908152600460205260409020555b60008181526018602052604090205461ffff1661270f14801590610eb9575060008181526018602052604090205461ffff166109c410155b15610ee3576000818152601860205260409020546006805461ffff191661ffff9092169190911790555b60008181526019602052604090205415610f0f57600081815260196020526040902054610f0f90610c6c565b6000818152601a602052604090205415610f54576000818152601a60205260409020546203f4801115610f4157600080fd5b6000818152601a60205260409020546013555b6000818152601b602052604090205415610f7b576000818152601b60205260409020546014555b6000818152601d6020526040808220805460ff191660011790555182917f25e590a02eeb0e1d9aada3d581d18076f2ce6ba24263d46b11f96c76e06974e891a250565b601a6020526000908152604090205481565b60046020526000908152604090205481565b6001600160a01b0381166000908152600460205260408120548161100584611061565b9050611044611021600754600054611b1e90919063ffffffff16565b60005461070490611038868663ffffffff611bdc16565b9063ffffffff611b6016565b949350505050565b601c6020526000908152604090205460ff1681565b6001600160a01b0381166000908152600b6020526040812054600a54829161108f919063ffffffff611b1e16565b6001600160a01b0384166000908152600460205260409020549091506110c5906305f5e10090610704908463ffffffff611b6016565b9392505050565b60196020526000908152604090205481565b6015602052600090815260409020546001600160a01b031681565b336000818152600e6020908152604080832054600d8352818420546001600160a01b03168452600c909252822080549190910390559061113890610fe2565b6001600160a01b0383166000818152600c60209081526040808320805490950190945533808352600d90915292902080546001600160a01b031916909117905561118190610fe2565b336000908152600e6020526040902055506001919050565b600a54336000818152600b6020526040812054909290801561122a576001600160a01b038316600090815260046020526040812054906111df848463ffffffff611b1e16565b905060006111fb6305f5e100610704858563ffffffff611b6016565b905061120d838263ffffffff611bdc16565b6001600160a01b0387166000908152600460205260409020555050505b6001600160a01b0383166000908152600b602052604081208390553390816112645760405162461bcd60e51b815260040161077f906126b0565b600054600754810388028161127557fe5b0490506112bb81604051806060016040528060268152602001612878602691396001600160a01b038516600090815260046020526040902054919063ffffffff611c0116565b6001600160a01b0383166000908152600460209081526040808320939093556011905220541561138e576001600160a01b03821660009081526011602052604090205487101561134a576001600160a01b038083166000818152601060209081526040808320549094168252600f815283822080548c900390559181526011909152208054889003905561138e565b6001600160a01b038083166000818152601160208181526040808420805460108452828620549097168552600f835290842080549690960390955592825290915290555b6001600160a01b0382166000908152600e602052604090205415611455576001600160a01b0382166000908152600e6020526040902054871015611411576001600160a01b038083166000818152600d60209081526040808320549094168252600c815283822080548c90039055918152600e9091522080548890039055611455565b6001600160a01b038083166000818152600e602081815260408084208054600d8452828620549097168552600c835290842080549690960390955592825290915290555b60065461146c90620186a09061ffff16830261098c565b6008546001600160a01b03166000908152600460205260409020556006546114a890620186a09061ffff16620184ac0362ffffff1683026109ed565b6114b360c8826109ed565b60006001600160a01b0316826001600160a01b03167fddf252ad1be2c89b69c2b068fc378daa952ba7f163c4a11628f55a4df523b3ef836040516114f79190612801565b60405180910390a35060019695505050505050565b60028054604080516020601f60001961010060018716150201909416859004938401819004810282018101909252828152606093909290918301828280156106585780601f1061062d57610100808354040283529160200191610658565b6009546001600160a01b031681565b600061068861158661190c565b84610ad6856040518060600160405280602581526020016128c660259139600560006115b061190c565b6001600160a01b03908116825260208083019390935260409182016000908120918d1681529252902054919063ffffffff611c0116565b6000825184511480156115fb575081518351145b61160457600080fd5b60005b84518110156116d65761164085828151811061161f57fe5b602002602001015185838151811061163357fe5b60200260200101516116e1565b61164957600080fd5b83818151811061165557fe5b602002602001015185828151811061166957fe5b60200260200101516001600160a01b0316336001600160a01b03167f19872106a7b684d5d23cb3a2576a0913956657fc74879f0c213c43c6facaf9d18685815181106116b157fe5b60200260200101516040516116c691906124a0565b60405180910390a4600101611607565b506001949350505050565b60006106886116ee61190c565b8484611c38565b3360008181526011602090815260408083205460108352818420546001600160a01b03168452600f909252822080549190910390559061173490610fe2565b6001600160a01b0383166000818152600f60209081526040808320805490950190945533808352601090915292902080546001600160a01b031916909117905561177d90610fe2565b33600090815260116020526040902055506001919050565b600c6020526000908152604090205481565b60145481565b601d6020526000908152604090205460ff1681565b60006064600054603302816117d357fe5b6001600160a01b0384166000908152600c60205260409020549190041061180c5760405162461bcd60e51b815260040161077f906127a5565b33321461182b5760405162461bcd60e51b815260040161077f9061275d565b600880546001600160a01b0319166001600160a01b0384169081179091556040517fafa147634b29e2c7bd53ce194256b9f41cfb9ba3036f2b822fdd1d965beea08690600090a2506001919050565b601b6020526000908152604090205481565b60116020526000908152604090205481565b60166020526000908152604090205481565b6001600160a01b03918216600090815260056020908152604080832093909416825291909152205490565b60065461ffff1681565b60125481565b6008546001600160a01b031681565b600f6020526000908152604090205481565b3390565b600a546001600160a01b0384166000908152600b602052604090205484919080156119aa576001600160a01b0383166000908152600460205260408120549061195f848463ffffffff611b1e16565b9050600061197b6305f5e100610704858563ffffffff611b6016565b905061198d838263ffffffff611bdc16565b6001600160a01b0387166000908152600460205260409020555050505b6001600160a01b038084166000908152600b6020526040808220859055600a5492881682529020548691908015611a50576001600160a01b03831660009081526004602052604081205490611a05848463ffffffff611b1e16565b90506000611a216305f5e100610704858563ffffffff611b6016565b9050611a33838263ffffffff611bdc16565b6001600160a01b0387166000908152600460205260409020555050505b6001600160a01b038084166000908152600b602052604090208390558916611a8a5760405162461bcd60e51b815260040161077f906126f5565b6001600160a01b038816611ab05760405162461bcd60e51b815260040161077f9061257d565b6001600160a01b03808a166000818152600560209081526040808320948d1680845294909152908190208a9055517f8c5be1e5ebec7d5bd14f71427d1e84f3dd0314c0f7b2291e5b200ac8c7c3b92590611b0b908b90612801565b60405180910390a3505050505050505050565b60006110c583836040518060400160405280601e81526020017f536166654d6174683a207375627472616374696f6e206f766572666c6f770000815250611c01565b600082611b6f5750600061068c565b82820282848281611b7c57fe5b04146110c55760405162461bcd60e51b815260040161077f9061262d565b60006110c583836040518060400160405280601a81526020017f536166654d6174683a206469766973696f6e206279207a65726f000000000000815250612104565b6000828201838110156110c55760405162461bcd60e51b815260040161077f906125bf565b60008184841115611c255760405162461bcd60e51b815260040161077f91906124a0565b505050900390565b600780549091019055565b600a546001600160a01b0384166000908152600b60205260409020548491908015611cd2576001600160a01b03831660009081526004602052604081205490611c87848463ffffffff611b1e16565b90506000611ca36305f5e100610704858563ffffffff611b6016565b9050611cb5838263ffffffff611bdc16565b6001600160a01b0387166000908152600460205260409020555050505b6001600160a01b038084166000908152600b6020526040808220859055600a5492881682529020548691908015611d78576001600160a01b03831660009081526004602052604081205490611d2d848463ffffffff611b1e16565b90506000611d496305f5e100610704858563ffffffff611b6016565b9050611d5b838263ffffffff611bdc16565b6001600160a01b0387166000908152600460205260409020555050505b6001600160a01b038084166000908152600b60205260408120849055908a16611db35760405162461bcd60e51b815260040161077f906126b0565b6001600160a01b038916611dd95760405162461bcd60e51b815260040161077f906124f3565b6000546007548103890281611dea57fe5b049050611e3081604051806060016040528060268152602001612878602691396001600160a01b038d16600090815260046020526040902054919063ffffffff611c0116565b6001600160a01b038b16600090815260046020526040902055600654611e8c90620186a09061ffff16620184ac0362ffffff1683026001600160a01b038c1660009081526004602052604090205491900463ffffffff611bdc16565b6001600160a01b03808b16600090815260046020908152604080832094909455918d1681526011909152205415611f66576001600160a01b038a16600090815260116020526040902054881015611f22576001600160a01b03808b166000818152601060209081526040808320549094168252600f815283822080548d9003905591815260119091522080548990039055611f66565b6001600160a01b03808b166000818152601160208181526040808420805460108452828620549097168552600f835290842080549690960390955592825290915290555b6001600160a01b038a166000908152600e60205260409020541561202d576001600160a01b038a166000908152600e6020526040902054881015611fe9576001600160a01b03808b166000818152600d60209081526040808320549094168252600c815283822080548d90039055918152600e909152208054899003905561202d565b6001600160a01b03808b166000818152600e602081815260408084208054600d8452828620549097168552600c835290842080549690960390955592825290915290555b60065461204490620186a09061ffff16830261098c565b6008546001600160a01b031660009081526004602052604090205561206a60c8826109ed565b886001600160a01b03168a6001600160a01b03167fddf252ad1be2c89b69c2b068fc378daa952ba7f163c4a11628f55a4df523b3ef8a6040516120ad9190612801565b60405180910390a350505050505050505050565b6009546001600160a01b031633146120eb5760405162461bcd60e51b815260040161077f90612739565b6000546120fe908263ffffffff611bdc16565b60005550565b600081836121255760405162461bcd60e51b815260040161077f91906124a0565b50600083858161213157fe5b0495945050505050565b80356001600160a01b038116811461068c57600080fd5b6000601f8381840112612163578182fd5b82356121766121718261283f565b612818565b818152925060208084019085810160005b84811015612209578135880189603f8201126121a257600080fd5b8381013567ffffffffffffffff8111156121bb57600080fd5b6121cc818901601f19168601612818565b81815260408c818486010111156121e257600080fd5b82818501888401375060009181018601919091528552509282019290820190600101612187565b50505050505092915050565b600082601f830112612225578081fd5b81356122336121718261283f565b81815291506020808301908481018184028601820187101561225457600080fd5b60005b8481101561227357813584529282019290820190600101612257565b505050505092915050565b60006020828403121561228f578081fd5b6110c5838361213b565b600080604083850312156122ab578081fd5b6122b5848461213b565b91506122c4846020850161213b565b90509250929050565b6000806000606084860312156122e1578081fd5b83356122ec8161285f565b925060208401356122fc8161285f565b929592945050506040919091013590565b6000806040838503121561231f578182fd5b612329848461213b565b946020939093013593505050565b60008060006060848603121561234b578283fd5b833567ffffffffffffffff80821115612362578485fd5b81860187601f820112612373578586fd5b803592506123836121718461283f565b80848252602080830192508084018b8283890287010111156123a357898afd5b8994505b868510156123cd576123b98c8261213b565b8452600194909401939281019281016123a7565b5090975088013593505050808211156123e4578384fd5b6123f087838801612215565b93506040860135915080821115612405578283fd5b5061241286828701612152565b9150509250925092565b60006020828403121561242d578081fd5b5035919050565b600080600080600060a0868803121561244b578081fd5b85359450602086013561ffff81168114612463578182fd5b94979496505050506040830135926060810135926080909101359150565b6001600160a01b0391909116815260200190565b901515815260200190565b6000602080835283518082850152825b818110156124cc578581018301518582016040015282016124b0565b818111156124dd5783604083870101525b50601f01601f1916929092016040019392505050565b60208082526023908201527f45524332303a207472616e7366657220746f20746865207a65726f206164647260408201526265737360e81b606082015260800190565b60208082526027908201527f7365744e657766656444616f207265717569726573206d616a6f7269747920616040820152661c1c1c9bdd985b60ca1b606082015260800190565b60208082526022908201527f45524332303a20617070726f766520746f20746865207a65726f206164647265604082015261737360f01b606082015260800190565b6020808252601b908201527f536166654d6174683a206164646974696f6e206f766572666c6f770000000000604082015260600190565b6020808252601c908201527f7472616e736665722066726f6d206e6f6e666564206164647265737300000000604082015260600190565b60208082526021908201527f536166654d6174683a206d756c7469706c69636174696f6e206f766572666c6f6040820152607760f81b606082015260800190565b60208082526022908201527f7365744e657766656444616f207265717569726573206e6f6e20636f6e74726160408201526118dd60f21b606082015260800190565b60208082526025908201527f45524332303a207472616e736665722066726f6d20746865207a65726f206164604082015264647265737360d81b606082015260800190565b60208082526024908201527f45524332303a20617070726f76652066726f6d20746865207a65726f206164646040820152637265737360e01b606082015260800190565b6020808252600a90820152696e6f742066656444414f60b01b604082015260600190565b60208082526028908201527f5370726f75743a207365744e65775444616f207265717569726573206e6f6e2060408201526718dbdb9d1c9858dd60c21b606082015260800190565b6020808252602d908201527f5370726f75743a207365744e65775444616f207265717569726573206d616a6f60408201526c1c9a5d1e48185c1c1c9bdd985b609a1b606082015260800190565b61ffff91909116815260200190565b90815260200190565b60ff91909116815260200190565b60405181810167ffffffffffffffff8111828210171561283757600080fd5b604052919050565b600067ffffffffffffffff821115612855578081fd5b5060209081020190565b6001600160a01b038116811461287457600080fd5b5056fe45524332303a207472616e7366657220616d6f756e7420657863656564732062616c616e636545524332303a207472616e7366657220616d6f756e74206578636565647320616c6c6f77616e636545524332303a2064656372656173656420616c6c6f77616e63652062656c6f77207a65726fa2646970667358221220d27e8ab813827d3c39ed1a8e7860ba1d0ebd14d61950ae9321843f038dd6064964736f6c63430006080033",
  "devdoc": {
    "details": "Implementation of the {IERC20} interface. * This implementation is agnostic to the way tokens are created. This means that a supply mechanism has to be added in a derived contract using {_mint}. For a generic mechanism see {ERC20PresetMinterPauser}. * TIP: For a detailed writeup see our guide https://forum.zeppelin.solutions/t/how-to-implement-erc20-supply-mechanisms/226[How to implement supply mechanisms]. * We have followed general OpenZeppelin guidelines: functions revert instead of returning `false` on failure. This behavior is nonetheless conventional and does not conflict with the expectations of ERC20 applications. * Additionally, an {Approval} event is emitted on calls to {transferFrom}. This allows applications to reconstruct the allowance for all accounts just by listening to said events. Other implementations of the EIP may not emit these events, as it isn't required by the specification. * Finally, the non-standard {decreaseAllowance} and {increaseAllowance} functions have been added to mitigate the well-known issues around setting allowances. See {IERC20-approve}.",
    "methods": {
      "allowance(address,address)": {
        "details": "See {IERC20-allowance}."
      },
      "approve(address,uint256)": {
        "details": "See {IERC20-approve}.     * Requirements:     * - `spender` cannot be the zero address."
      },
      "balanceOf(address)": {
        "details": "See {IERC20-balanceOf}."
      },
      "burnfed(address,uint256)": {
        "details": "Destroys `amount` tokens from `account`, reducing the total supply.     * Emits a {Transfer} event with `to` set to the zero address.     * Requirements:     * - `account` cannot be the zero address. - `account` must have at least `amount` tokens."
      },
      "constructor": {
        "details": "Sets the values for {name} and {symbol}, initializes {decimals} with a default value of 8.     * To select a different value for {decimals}, use {_setupDecimals}.     * All three of these values are immutable: they can only be set once during construction."
      },
      "decreaseAllowance(address,uint256)": {
        "details": "Atomically decreases the allowance granted to `spender` by the caller.     * This is an alternative to {approve} that can be used as a mitigation for problems described in {IERC20-approve}.     * Emits an {Approval} event indicating the updated allowance.     * Requirements:     * - `spender` cannot be the zero address. - `spender` must have allowance for the caller of at least `subtractedValue`."
      },
      "increaseAllowance(address,uint256)": {
        "details": "Atomically increases the allowance granted to `spender` by the caller.     * This is an alternative to {approve} that can be used as a mitigation for problems described in {IERC20-approve}.     * Emits an {Approval} event indicating the updated allowance.     * Requirements:     * - `spender` cannot be the zero address."
      },
      "name()": {
        "details": "Returns the name of the token."
      },
      "newproposal(uint256,uint16,uint256,uint256,uint256)": {
        "details": "Moves tokens `amount` from `sender` to `recipient`.     * This is internal function is equivalent to {transfer}, and can be used to e.g. implement automatic token fees, slashing mechanisms, etc.     * Emits a {Transfer} event.     * Requirements:     * - `sender` cannot be the zero address. - `recipient` cannot be the zero address. - `sender` must have a balance of at least `amount`."
      },
      "symbol()": {
        "details": "Returns the symbol of the token, usually a shorter version of the name."
      },
      "totalSupply()": {
        "details": "See {IERC20-totalSupply}."
      },
      "transfer(address,uint256)": {
        "details": "See {IERC20-transfer}.     * Requirements:     * - `recipient` cannot be the zero address. - the caller must have a balance of at least `amount`."
      },
      "transferFrom(address,address,uint256)": {
        "details": "See {IERC20-transferFrom}.     * Emits an {Approval} event indicating the updated allowance. This is not required by the EIP. See the note at the beginning of {ERC20}.     * Requirements:     * - `sender` and `recipient` cannot be the zero address. - `sender` must have a balance of at least `amount`. - the caller must have allowance for ``sender``'s tokens of at least `amount`."
      },
      "updatefedVote(address)": {
        "details": "Update votes. Votedad voted address by sender. Votet treasury address votes.     Voted sender vote amount."
      },
      "updatetreasuryVote(address)": {
        "details": "Update votes. Votedad voted address by sender. Votet treasury address votes.     Voted sender vote amount."
      }
    }
  },
  "userdoc": {
    "methods": {}
  },
  "storageLayout": {
    "storage": [
      {
        "astId": 320,
        "contract": "contracts/Muny.sol:Muny",
        "label": "_totalSupply",
        "offset": 0,
        "slot": "0",
        "type": "t_uint256"
      },
      {
        "astId": 322,
        "contract": "contracts/Muny.sol:Muny",
        "label": "_name",
        "offset": 0,
        "slot": "1",
        "type": "t_string_storage"
      },
      {
        "astId": 324,
        "contract": "contracts/Muny.sol:Muny",
        "label": "_symbol",
        "offset": 0,
        "slot": "2",
        "type": "t_string_storage"
      },
      {
        "astId": 326,
        "contract": "contracts/Muny.sol:Muny",
        "label": "_decimals",
        "offset": 0,
        "slot": "3",
        "type": "t_uint8"
      },
      {
        "astId": 330,
        "contract": "contracts/Muny.sol:Muny",
        "label": "_balances",
        "offset": 0,
        "slot": "4",
        "type": "t_mapping(t_address,t_uint256)"
      },
      {
        "astId": 336,
        "contract": "contracts/Muny.sol:Muny",
        "label": "_allowances",
        "offset": 0,
        "slot": "5",
        "type": "t_mapping(t_address,t_mapping(t_address,t_uint256))"
      },
      {
        "astId": 338,
        "contract": "contracts/Muny.sol:Muny",
        "label": "fee",
        "offset": 0,
        "slot": "6",
        "type": "t_uint16"
      },
      {
        "astId": 340,
        "contract": "contracts/Muny.sol:Muny",
        "label": "burnedSupply",
        "offset": 0,
        "slot": "7",
        "type": "t_uint256"
      },
      {
        "astId": 342,
        "contract": "contracts/Muny.sol:Muny",
        "label": "treasuryDao",
        "offset": 0,
        "slot": "8",
        "type": "t_address"
      },
      {
        "astId": 344,
        "contract": "contracts/Muny.sol:Muny",
        "label": "fedDAO",
        "offset": 0,
        "slot": "9",
        "type": "t_address"
      },
      {
        "astId": 346,
        "contract": "contracts/Muny.sol:Muny",
        "label": "_totalDividendPoints",
        "offset": 0,
        "slot": "10",
        "type": "t_uint256"
      },
      {
        "astId": 350,
        "contract": "contracts/Muny.sol:Muny",
        "label": "_lastDividendPoints",
        "offset": 0,
        "slot": "11",
        "type": "t_mapping(t_address,t_uint256)"
      },
      {
        "astId": 354,
        "contract": "contracts/Muny.sol:Muny",
        "label": "tvote",
        "offset": 0,
        "slot": "12",
        "type": "t_mapping(t_address,t_uint256)"
      },
      {
        "astId": 358,
        "contract": "contracts/Muny.sol:Muny",
        "label": "tvotedaddrs",
        "offset": 0,
        "slot": "13",
        "type": "t_mapping(t_address,t_address)"
      },
      {
        "astId": 362,
        "contract": "contracts/Muny.sol:Muny",
        "label": "tvoted",
        "offset": 0,
        "slot": "14",
        "type": "t_mapping(t_address,t_uint256)"
      },
      {
        "astId": 366,
        "contract": "contracts/Muny.sol:Muny",
        "label": "fvote",
        "offset": 0,
        "slot": "15",
        "type": "t_mapping(t_address,t_uint256)"
      },
      {
        "astId": 370,
        "contract": "contracts/Muny.sol:Muny",
        "label": "fvotedaddrs",
        "offset": 0,
        "slot": "16",
        "type": "t_mapping(t_address,t_address)"
      },
      {
        "astId": 374,
        "contract": "contracts/Muny.sol:Muny",
        "label": "fvoted",
        "offset": 0,
        "slot": "17",
        "type": "t_mapping(t_address,t_uint256)"
      },
      {
        "astId": 376,
        "contract": "contracts/Muny.sol:Muny",
        "label": "prop",
        "offset": 0,
        "slot": "18",
        "type": "t_uint256"
      },
      {
        "astId": 378,
        "contract": "contracts/Muny.sol:Muny",
        "label": "tlock",
        "offset": 0,
        "slot": "19",
        "type": "t_uint256"
      },
      {
        "astId": 380,
        "contract": "contracts/Muny.sol:Muny",
        "label": "lockxp",
        "offset": 0,
        "slot": "20",
        "type": "t_uint256"
      },
      {
        "astId": 384,
        "contract": "contracts/Muny.sol:Muny",
        "label": "proposer",
        "offset": 0,
        "slot": "21",
        "type": "t_mapping(t_uint256,t_address)"
      },
      {
        "astId": 388,
        "contract": "contracts/Muny.sol:Muny",
        "label": "lock",
        "offset": 0,
        "slot": "22",
        "type": "t_mapping(t_uint256,t_uint256)"
      },
      {
        "astId": 392,
        "contract": "contracts/Muny.sol:Muny",
        "label": "mintam",
        "offset": 0,
        "slot": "23",
        "type": "t_mapping(t_uint256,t_uint256)"
      },
      {
        "astId": 396,
        "contract": "contracts/Muny.sol:Muny",
        "label": "pfee",
        "offset": 0,
        "slot": "24",
        "type": "t_mapping(t_uint256,t_uint16)"
      },
      {
        "astId": 400,
        "contract": "contracts/Muny.sol:Muny",
        "label": "inflate",
        "offset": 0,
        "slot": "25",
        "type": "t_mapping(t_uint256,t_uint256)"
      },
      {
        "astId": 404,
        "contract": "contracts/Muny.sol:Muny",
        "label": "lockmin",
        "offset": 0,
        "slot": "26",
        "type": "t_mapping(t_uint256,t_uint256)"
      },
      {
        "astId": 408,
        "contract": "contracts/Muny.sol:Muny",
        "label": "lockx",
        "offset": 0,
        "slot": "27",
        "type": "t_mapping(t_uint256,t_uint256)"
      },
      {
        "astId": 412,
        "contract": "contracts/Muny.sol:Muny",
        "label": "canceled",
        "offset": 0,
        "slot": "28",
        "type": "t_mapping(t_uint256,t_bool)"
      },
      {
        "astId": 416,
        "contract": "contracts/Muny.sol:Muny",
        "label": "executed",
        "offset": 0,
        "slot": "29",
        "type": "t_mapping(t_uint256,t_bool)"
      }
    ],
    "types": {
      "t_address": {
        "encoding": "inplace",
        "label": "address",
        "numberOfBytes": "20"
      },
      "t_bool": {
        "encoding": "inplace",
        "label": "bool",
        "numberOfBytes": "1"
      },
      "t_mapping(t_address,t_address)": {
        "encoding": "mapping",
        "key": "t_address",
        "label": "mapping(address => address)",
        "numberOfBytes": "32",
        "value": "t_address"
      },
      "t_mapping(t_address,t_mapping(t_address,t_uint256))": {
        "encoding": "mapping",
        "key": "t_address",
        "label": "mapping(address => mapping(address => uint256))",
        "numberOfBytes": "32",
        "value": "t_mapping(t_address,t_uint256)"
      },
      "t_mapping(t_address,t_uint256)": {
        "encoding": "mapping",
        "key": "t_address",
        "label": "mapping(address => uint256)",
        "numberOfBytes": "32",
        "value": "t_uint256"
      },
      "t_mapping(t_uint256,t_address)": {
        "encoding": "mapping",
        "key": "t_uint256",
        "label": "mapping(uint256 => address)",
        "numberOfBytes": "32",
        "value": "t_address"
      },
      "t_mapping(t_uint256,t_bool)": {
        "encoding": "mapping",
        "key": "t_uint256",
        "label": "mapping(uint256 => bool)",
        "numberOfBytes": "32",
        "value": "t_bool"
      },
      "t_mapping(t_uint256,t_uint16)": {
        "encoding": "mapping",
        "key": "t_uint256",
        "label": "mapping(uint256 => uint16)",
        "numberOfBytes": "32",
        "value": "t_uint16"
      },
      "t_mapping(t_uint256,t_uint256)": {
        "encoding": "mapping",
        "key": "t_uint256",
        "label": "mapping(uint256 => uint256)",
        "numberOfBytes": "32",
        "value": "t_uint256"
      },
      "t_string_storage": {
        "encoding": "bytes",
        "label": "string",
        "numberOfBytes": "32"
      },
      "t_uint16": {
        "encoding": "inplace",
        "label": "uint16",
        "numberOfBytes": "2"
      },
      "t_uint256": {
        "encoding": "inplace",
        "label": "uint256",
        "numberOfBytes": "32"
      },
      "t_uint8": {
        "encoding": "inplace",
        "label": "uint8",
        "numberOfBytes": "1"
      }
    }
  },
  "gasEstimates": {
    "creation": {
      "codeDepositCost": "2105600",
      "executionCost": "infinite",
      "totalCost": "infinite"
    },
    "external": {
      "_balances(address)": "1368",
      "_disburse(uint256)": "infinite",
      "allowance(address,address)": "infinite",
      "approve(address,uint256)": "infinite",
      "balanceOf(address)": "infinite",
      "burnedSupply()": "1162",
      "burnfed(address,uint256)": "infinite",
      "burnt(uint256)": "infinite",
      "canceled(uint256)": "1338",
      "decimals()": "1202",
      "decreaseAllowance(address,uint256)": "infinite",
      "dividendsOwed(address)": "infinite",
      "executed(uint256)": "1272",
      "executeproposal(uint256)": "infinite",
      "fedDAO()": "1137",
      "fee()": "1134",
      "fvote(address)": "1411",
      "fvoted(address)": "1412",
      "fvotedaddrs(address)": "1344",
      "increaseAllowance(address,uint256)": "infinite",
      "inflate(uint256)": "1239",
      "lock(uint256)": "1215",
      "lockmin(uint256)": "1260",
      "lockx(uint256)": "1304",
      "lockxp()": "1095",
      "mintam(uint256)": "1218",
      "name()": "infinite",
      "newproposal(uint256,uint16,uint256,uint256,uint256)": "165334",
      "pfee(uint256)": "1301",
      "prop()": "1138",
      "proposer(uint256)": "1303",
      "setNewTDao(address)": "24294",
      "setNewfedDao(address)": "24295",
      "symbol()": "infinite",
      "tlock()": "1118",
      "totalSupply()": "1163",
      "transfer(address,uint256)": "infinite",
      "transferFrom(address,address,uint256)": "infinite",
      "transferx(address[],uint256[],string[])": "infinite",
      "treasuryDao()": "1202",
      "tvote(address)": "1302",
      "tvoted(address)": "1348",
      "tvotedaddrs(address)": "1433",
      "updatefedVote(address)": "infinite",
      "updatetreasuryVote(address)": "infinite"
    },
    "internal": {
      "_approve(address,address,uint256)": "infinite",
      "_burn(uint256)": "20827",
      "_mint(uint256)": "infinite",
      "_transfer(address,address,uint256)": "infinite"
    }
  }
}